{
  "_format": "hh-sol-artifact-1",
  "contractName": "MasterChef",
  "sourceName": "contracts/test/pancake-farm/MasterChef.sol",
  "abi": [
    {
      "inputs": [
        {
          "internalType": "contract CakeToken",
          "name": "_cake",
          "type": "address"
        },
        {
          "internalType": "contract SyrupBar",
          "name": "_syrup",
          "type": "address"
        },
        {
          "internalType": "address",
          "name": "_devaddr",
          "type": "address"
        },
        {
          "internalType": "uint256",
          "name": "_cakePerBlock",
          "type": "uint256"
        },
        {
          "internalType": "uint256",
          "name": "_startBlock",
          "type": "uint256"
        }
      ],
      "stateMutability": "nonpayable",
      "type": "constructor"
    },
    {
      "anonymous": false,
      "inputs": [
        {
          "indexed": true,
          "internalType": "address",
          "name": "user",
          "type": "address"
        },
        {
          "indexed": true,
          "internalType": "uint256",
          "name": "pid",
          "type": "uint256"
        },
        {
          "indexed": false,
          "internalType": "uint256",
          "name": "amount",
          "type": "uint256"
        }
      ],
      "name": "Deposit",
      "type": "event"
    },
    {
      "anonymous": false,
      "inputs": [
        {
          "indexed": true,
          "internalType": "address",
          "name": "user",
          "type": "address"
        },
        {
          "indexed": true,
          "internalType": "uint256",
          "name": "pid",
          "type": "uint256"
        },
        {
          "indexed": false,
          "internalType": "uint256",
          "name": "amount",
          "type": "uint256"
        }
      ],
      "name": "EmergencyWithdraw",
      "type": "event"
    },
    {
      "anonymous": false,
      "inputs": [
        {
          "indexed": true,
          "internalType": "address",
          "name": "previousOwner",
          "type": "address"
        },
        {
          "indexed": true,
          "internalType": "address",
          "name": "newOwner",
          "type": "address"
        }
      ],
      "name": "OwnershipTransferred",
      "type": "event"
    },
    {
      "anonymous": false,
      "inputs": [
        {
          "indexed": true,
          "internalType": "address",
          "name": "user",
          "type": "address"
        },
        {
          "indexed": true,
          "internalType": "uint256",
          "name": "pid",
          "type": "uint256"
        },
        {
          "indexed": false,
          "internalType": "uint256",
          "name": "amount",
          "type": "uint256"
        }
      ],
      "name": "Withdraw",
      "type": "event"
    },
    {
      "inputs": [],
      "name": "BONUS_MULTIPLIER",
      "outputs": [
        {
          "internalType": "uint256",
          "name": "",
          "type": "uint256"
        }
      ],
      "stateMutability": "view",
      "type": "function"
    },
    {
      "inputs": [
        {
          "internalType": "uint256",
          "name": "_allocPoint",
          "type": "uint256"
        },
        {
          "internalType": "contract IERC20",
          "name": "_lpToken",
          "type": "address"
        },
        {
          "internalType": "bool",
          "name": "_withUpdate",
          "type": "bool"
        }
      ],
      "name": "add",
      "outputs": [],
      "stateMutability": "nonpayable",
      "type": "function"
    },
    {
      "inputs": [],
      "name": "cake",
      "outputs": [
        {
          "internalType": "contract CakeToken",
          "name": "",
          "type": "address"
        }
      ],
      "stateMutability": "view",
      "type": "function"
    },
    {
      "inputs": [],
      "name": "cakePerBlock",
      "outputs": [
        {
          "internalType": "uint256",
          "name": "",
          "type": "uint256"
        }
      ],
      "stateMutability": "view",
      "type": "function"
    },
    {
      "inputs": [
        {
          "internalType": "uint256",
          "name": "_pid",
          "type": "uint256"
        },
        {
          "internalType": "uint256",
          "name": "_amount",
          "type": "uint256"
        }
      ],
      "name": "deposit",
      "outputs": [],
      "stateMutability": "nonpayable",
      "type": "function"
    },
    {
      "inputs": [
        {
          "internalType": "address",
          "name": "_devaddr",
          "type": "address"
        }
      ],
      "name": "dev",
      "outputs": [],
      "stateMutability": "nonpayable",
      "type": "function"
    },
    {
      "inputs": [],
      "name": "devaddr",
      "outputs": [
        {
          "internalType": "address",
          "name": "",
          "type": "address"
        }
      ],
      "stateMutability": "view",
      "type": "function"
    },
    {
      "inputs": [
        {
          "internalType": "uint256",
          "name": "_pid",
          "type": "uint256"
        }
      ],
      "name": "emergencyWithdraw",
      "outputs": [],
      "stateMutability": "nonpayable",
      "type": "function"
    },
    {
      "inputs": [
        {
          "internalType": "uint256",
          "name": "_amount",
          "type": "uint256"
        }
      ],
      "name": "enterStaking",
      "outputs": [],
      "stateMutability": "nonpayable",
      "type": "function"
    },
    {
      "inputs": [
        {
          "internalType": "uint256",
          "name": "_from",
          "type": "uint256"
        },
        {
          "internalType": "uint256",
          "name": "_to",
          "type": "uint256"
        }
      ],
      "name": "getMultiplier",
      "outputs": [
        {
          "internalType": "uint256",
          "name": "",
          "type": "uint256"
        }
      ],
      "stateMutability": "view",
      "type": "function"
    },
    {
      "inputs": [
        {
          "internalType": "uint256",
          "name": "_amount",
          "type": "uint256"
        }
      ],
      "name": "leaveStaking",
      "outputs": [],
      "stateMutability": "nonpayable",
      "type": "function"
    },
    {
      "inputs": [],
      "name": "massUpdatePools",
      "outputs": [],
      "stateMutability": "nonpayable",
      "type": "function"
    },
    {
      "inputs": [
        {
          "internalType": "uint256",
          "name": "_pid",
          "type": "uint256"
        }
      ],
      "name": "migrate",
      "outputs": [],
      "stateMutability": "nonpayable",
      "type": "function"
    },
    {
      "inputs": [],
      "name": "migrator",
      "outputs": [
        {
          "internalType": "contract IMigratorChef",
          "name": "",
          "type": "address"
        }
      ],
      "stateMutability": "view",
      "type": "function"
    },
    {
      "inputs": [],
      "name": "owner",
      "outputs": [
        {
          "internalType": "address",
          "name": "",
          "type": "address"
        }
      ],
      "stateMutability": "view",
      "type": "function"
    },
    {
      "inputs": [
        {
          "internalType": "uint256",
          "name": "_pid",
          "type": "uint256"
        },
        {
          "internalType": "address",
          "name": "_user",
          "type": "address"
        }
      ],
      "name": "pendingCake",
      "outputs": [
        {
          "internalType": "uint256",
          "name": "",
          "type": "uint256"
        }
      ],
      "stateMutability": "view",
      "type": "function"
    },
    {
      "inputs": [
        {
          "internalType": "uint256",
          "name": "",
          "type": "uint256"
        }
      ],
      "name": "poolInfo",
      "outputs": [
        {
          "internalType": "contract IERC20",
          "name": "lpToken",
          "type": "address"
        },
        {
          "internalType": "uint256",
          "name": "allocPoint",
          "type": "uint256"
        },
        {
          "internalType": "uint256",
          "name": "lastRewardBlock",
          "type": "uint256"
        },
        {
          "internalType": "uint256",
          "name": "accCakePerShare",
          "type": "uint256"
        }
      ],
      "stateMutability": "view",
      "type": "function"
    },
    {
      "inputs": [],
      "name": "poolLength",
      "outputs": [
        {
          "internalType": "uint256",
          "name": "",
          "type": "uint256"
        }
      ],
      "stateMutability": "view",
      "type": "function"
    },
    {
      "inputs": [],
      "name": "renounceOwnership",
      "outputs": [],
      "stateMutability": "nonpayable",
      "type": "function"
    },
    {
      "inputs": [
        {
          "internalType": "uint256",
          "name": "_pid",
          "type": "uint256"
        },
        {
          "internalType": "uint256",
          "name": "_allocPoint",
          "type": "uint256"
        },
        {
          "internalType": "bool",
          "name": "_withUpdate",
          "type": "bool"
        }
      ],
      "name": "set",
      "outputs": [],
      "stateMutability": "nonpayable",
      "type": "function"
    },
    {
      "inputs": [
        {
          "internalType": "contract IMigratorChef",
          "name": "_migrator",
          "type": "address"
        }
      ],
      "name": "setMigrator",
      "outputs": [],
      "stateMutability": "nonpayable",
      "type": "function"
    },
    {
      "inputs": [],
      "name": "startBlock",
      "outputs": [
        {
          "internalType": "uint256",
          "name": "",
          "type": "uint256"
        }
      ],
      "stateMutability": "view",
      "type": "function"
    },
    {
      "inputs": [],
      "name": "syrup",
      "outputs": [
        {
          "internalType": "contract SyrupBar",
          "name": "",
          "type": "address"
        }
      ],
      "stateMutability": "view",
      "type": "function"
    },
    {
      "inputs": [],
      "name": "totalAllocPoint",
      "outputs": [
        {
          "internalType": "uint256",
          "name": "",
          "type": "uint256"
        }
      ],
      "stateMutability": "view",
      "type": "function"
    },
    {
      "inputs": [
        {
          "internalType": "address",
          "name": "newOwner",
          "type": "address"
        }
      ],
      "name": "transferOwnership",
      "outputs": [],
      "stateMutability": "nonpayable",
      "type": "function"
    },
    {
      "inputs": [
        {
          "internalType": "uint256",
          "name": "_cakePerBlock",
          "type": "uint256"
        }
      ],
      "name": "updateCakePerBlock",
      "outputs": [],
      "stateMutability": "nonpayable",
      "type": "function"
    },
    {
      "inputs": [
        {
          "internalType": "uint256",
          "name": "multiplierNumber",
          "type": "uint256"
        }
      ],
      "name": "updateMultiplier",
      "outputs": [],
      "stateMutability": "nonpayable",
      "type": "function"
    },
    {
      "inputs": [
        {
          "internalType": "uint256",
          "name": "_pid",
          "type": "uint256"
        }
      ],
      "name": "updatePool",
      "outputs": [],
      "stateMutability": "nonpayable",
      "type": "function"
    },
    {
      "inputs": [
        {
          "internalType": "uint256",
          "name": "",
          "type": "uint256"
        },
        {
          "internalType": "address",
          "name": "",
          "type": "address"
        }
      ],
      "name": "userInfo",
      "outputs": [
        {
          "internalType": "uint256",
          "name": "amount",
          "type": "uint256"
        },
        {
          "internalType": "uint256",
          "name": "rewardDebt",
          "type": "uint256"
        }
      ],
      "stateMutability": "view",
      "type": "function"
    },
    {
      "inputs": [
        {
          "internalType": "uint256",
          "name": "_pid",
          "type": "uint256"
        },
        {
          "internalType": "uint256",
          "name": "_amount",
          "type": "uint256"
        }
      ],
      "name": "withdraw",
      "outputs": [],
      "stateMutability": "nonpayable",
      "type": "function"
    }
  ],
  "bytecode": "0x60806040526001600555600060095534801561001a57600080fd5b5060405161265b38038061265b833981810160405260a081101561003d57600080fd5b5080516020820151604083015160608401516080909401519293919290919060006100666101e0565b600080546001600160a01b0319166001600160a01b0383169081178255604051929350917f8be0079c531659141344cd1fd0a4f28419497f9722a3daafe3b4186f6b6457e0908290a350600180546001600160a01b03199081166001600160a01b03978816908117835560028054831697891697909717909655600380548216958816959095179094556004928355600a829055604080516080810182529586526103e86020870181815291870193845260006060880181815260078054958601815590915296517fa66cc928b5edb82af9bd49922954155ab7b0942694bea4ce44661d9a8736c688939095029283018054909616949097169390931790935590517fa66cc928b5edb82af9bd49922954155ab7b0942694bea4ce44661d9a8736c689830155517fa66cc928b5edb82af9bd49922954155ab7b0942694bea4ce44661d9a8736c68a82015590517fa66cc928b5edb82af9bd49922954155ab7b0942694bea4ce44661d9a8736c68b909101556009556101e4565b3390565b612468806101f36000396000f3fe608060405234801561001057600080fd5b50600436106101da5760003560e01c8063630b5ba1116101045780638da5cb5b116100a2578063d49e77cd11610071578063d49e77cd146104d9578063dce17484146104e1578063e2bbb158146104e9578063f2fde38b1461050c576101da565b80638da5cb5b1461044c5780638dbb1e3a14610454578063937d98711461047757806393f1a40b14610494576101da565b80637cd07e47116100de5780637cd07e47146103f257806386a952c4146104165780638aa285501461041e5780638d88a90e14610426576101da565b8063630b5ba1146103b757806364482f79146103bf578063715018a6146103ea576101da565b806323cf31181161017c57806348cd4cb11161014b57806348cd4cb11461035857806351eb05a6146103605780635312ea8e1461037d5780635ffe61461461039a576101da565b806323cf3118146102d557806341441d3b146102fb578063441a3e7014610318578063454b06081461033b576101da565b80631175a1dd116101b85780631175a1dd146102205780631526fe271461024c57806317caf6f1146102995780631eaaa045146102a1576101da565b80630755e0b6146101df578063081e3eda146101f95780631058d28114610201575b600080fd5b6101e7610532565b60408051918252519081900360200190f35b6101e7610538565b61021e6004803603602081101561021757600080fd5b503561053e565b005b6101e76004803603604081101561023657600080fd5b50803590602001356001600160a01b0316610746565b6102696004803603602081101561026257600080fd5b50356108c9565b604080516001600160a01b0390951685526020850193909352838301919091526060830152519081900360800190f35b6101e761090a565b61021e600480360360608110156102b757600080fd5b508035906001600160a01b0360208201351690604001351515610910565b61021e600480360360208110156102eb57600080fd5b50356001600160a01b0316610aca565b61021e6004803603602081101561031157600080fd5b5035610b78565b61021e6004803603604081101561032e57600080fd5b5080359060200135610d25565b61021e6004803603602081101561035157600080fd5b5035610ed5565b6101e76111ae565b61021e6004803603602081101561037657600080fd5b50356111b4565b61021e6004803603602081101561039357600080fd5b503561140c565b61021e600480360360208110156103b057600080fd5b50356114a7565b61021e611520565b61021e600480360360608110156103d557600080fd5b50803590602081013590604001351515611543565b61021e61163c565b6103fa611712565b604080516001600160a01b039092168252519081900360200190f35b6103fa611721565b6101e7611730565b61021e6004803603602081101561043c57600080fd5b50356001600160a01b0316611736565b6103fa6117cf565b6101e76004803603604081101561046a57600080fd5b50803590602001356117de565b61021e6004803603602081101561048d57600080fd5b50356117f9565b6104c0600480360360408110156104aa57600080fd5b50803590602001356001600160a01b031661187a565b6040805192835260208301919091528051918290030190f35b6103fa61189e565b6103fa6118ad565b61021e600480360360408110156104ff57600080fd5b50803590602001356118bc565b61021e6004803603602081101561052257600080fd5b50356001600160a01b0316611a20565b60045481565b60075490565b6000600760008154811061054e57fe5b600091825260208083203384527f5eff886ea0ce6ca488a3d6e336d6c0f75f46d19b42c06ce5ee98e42c96d256c790915260409092208054600490920290920192508311156105e4576040805162461bcd60e51b815260206004820152601260248201527f77697468647261773a206e6f7420676f6f640000000000000000000000000000604482015290519081900360640190fd5b6105ee60006111b4565b6000610628826001015461062264e8d4a5100061061c87600301548760000154611b4c90919063ffffffff16565b90611ba5565b90611c0c565b9050801561063a5761063a3382611c69565b831561066457815461064c9085611c0c565b82558254610664906001600160a01b03163386611cf3565b6003830154825461067f9164e8d4a510009161061c91611b4c565b6001830155600254604080517f9dc29fac0000000000000000000000000000000000000000000000000000000081523360048201526024810187905290516001600160a01b0390921691639dc29fac9160448082019260009290919082900301818387803b1580156106f057600080fd5b505af1158015610704573d6000803e3d6000fd5b5050604080518781529051600093503392507ff279e6a1f5e320cca91135676d9cb6e44ca8a08c0b88342bcdb1144f6511b5689181900360200190a350505050565b6000806007848154811061075657fe5b600091825260208083208784526008825260408085206001600160a01b03898116875290845281862060049586029093016003810154815484517f70a082310000000000000000000000000000000000000000000000000000000081523098810198909852935191985093969395939492909116926370a08231926024808301939192829003018186803b1580156107ed57600080fd5b505afa158015610801573d6000803e3d6000fd5b505050506040513d602081101561081757600080fd5b505160028501549091504311801561082e57508015155b156108945760006108438560020154436117de565b9050600061087060095461061c886001015461086a60045487611b4c90919063ffffffff16565b90611b4c565b905061088f6108888461061c8464e8d4a51000611b4c565b8590611d78565b935050505b6108bc836001015461062264e8d4a5100061061c868860000154611b4c90919063ffffffff16565b9450505050505b92915050565b600781815481106108d657fe5b600091825260209091206004909102018054600182015460028301546003909301546001600160a01b039092169350919084565b60095481565b610918611dd2565b6001600160a01b03166109296117cf565b6001600160a01b031614610984576040805162461bcd60e51b815260206004820181905260248201527f4f776e61626c653a2063616c6c6572206973206e6f7420746865206f776e6572604482015290519081900360640190fd5b801561099257610992611520565b6000600a5443116109a557600a546109a7565b435b6009549091506109b79085611d78565b600955604080516080810182526001600160a01b0385811682526020820187815292820184815260006060840181815260078054600181018255925293517fa66cc928b5edb82af9bd49922954155ab7b0942694bea4ce44661d9a8736c688600490920291820180547fffffffffffffffffffffffff000000000000000000000000000000000000000016919094161790925592517fa66cc928b5edb82af9bd49922954155ab7b0942694bea4ce44661d9a8736c68982015591517fa66cc928b5edb82af9bd49922954155ab7b0942694bea4ce44661d9a8736c68a830155517fa66cc928b5edb82af9bd49922954155ab7b0942694bea4ce44661d9a8736c68b90910155610ac4611dd6565b50505050565b610ad2611dd2565b6001600160a01b0316610ae36117cf565b6001600160a01b031614610b3e576040805162461bcd60e51b815260206004820181905260248201527f4f776e61626c653a2063616c6c6572206973206e6f7420746865206f776e6572604482015290519081900360640190fd5b600680547fffffffffffffffffffffffff0000000000000000000000000000000000000000166001600160a01b0392909216919091179055565b60006007600081548110610b8857fe5b600091825260208083203384527f5eff886ea0ce6ca488a3d6e336d6c0f75f46d19b42c06ce5ee98e42c96d256c790915260408320600490920201925090610bcf906111b4565b805415610c18576000610c04826001015461062264e8d4a5100061061c87600301548760000154611b4c90919063ffffffff16565b90508015610c1657610c163382611c69565b505b8215610c44578154610c35906001600160a01b0316333086611e9b565b8054610c419084611d78565b81555b60038201548154610c5f9164e8d4a510009161061c91611b4c565b6001820155600254604080517f40c10f190000000000000000000000000000000000000000000000000000000081523360048201526024810186905290516001600160a01b03909216916340c10f199160448082019260009290919082900301818387803b158015610cd057600080fd5b505af1158015610ce4573d6000803e3d6000fd5b5050604080518681529051600093503392507f90890809c654f11d6e72a28fa60149770a0d11ec6c92319d6ceb2bb0a4ea1a159181900360200190a3505050565b81610d77576040805162461bcd60e51b815260206004820152601a60248201527f77697468647261772043414b4520627920756e7374616b696e67000000000000604482015290519081900360640190fd5b600060078381548110610d8657fe5b600091825260208083208684526008825260408085203386529092529220805460049092029092019250831115610e04576040805162461bcd60e51b815260206004820152601260248201527f77697468647261773a206e6f7420676f6f640000000000000000000000000000604482015290519081900360640190fd5b610e0d846111b4565b6000610e3b826001015461062264e8d4a5100061061c87600301548760000154611b4c90919063ffffffff16565b90508015610e4d57610e4d3382611c69565b8315610e77578154610e5f9085611c0c565b82558254610e77906001600160a01b03163386611cf3565b60038301548254610e929164e8d4a510009161061c91611b4c565b6001830155604080518581529051869133917ff279e6a1f5e320cca91135676d9cb6e44ca8a08c0b88342bcdb1144f6511b5689181900360200190a35050505050565b6006546001600160a01b0316610f32576040805162461bcd60e51b815260206004820152601460248201527f6d6967726174653a206e6f206d69677261746f72000000000000000000000000604482015290519081900360640190fd5b600060078281548110610f4157fe5b600091825260208083206004928302018054604080517f70a082310000000000000000000000000000000000000000000000000000000081523095810195909552519195506001600160a01b0316939284926370a0823192602480840193829003018186803b158015610fb357600080fd5b505afa158015610fc7573d6000803e3d6000fd5b505050506040513d6020811015610fdd57600080fd5b5051600654909150610ffc906001600160a01b03848116911683611f23565b600654604080517fce5494bb0000000000000000000000000000000000000000000000000000000081526001600160a01b0385811660048301529151600093929092169163ce5494bb9160248082019260209290919082900301818787803b15801561106757600080fd5b505af115801561107b573d6000803e3d6000fd5b505050506040513d602081101561109157600080fd5b5051604080517f70a0823100000000000000000000000000000000000000000000000000000000815230600482015290519192506001600160a01b038316916370a0823191602480820192602092909190829003018186803b1580156110f657600080fd5b505afa15801561110a573d6000803e3d6000fd5b505050506040513d602081101561112057600080fd5b50518214611175576040805162461bcd60e51b815260206004820152600c60248201527f6d6967726174653a206261640000000000000000000000000000000000000000604482015290519081900360640190fd5b83547fffffffffffffffffffffffff0000000000000000000000000000000000000000166001600160a01b039190911617909255505050565b600a5481565b6000600782815481106111c357fe5b90600052602060002090600402019050806002015443116111e45750611409565b8054604080517f70a0823100000000000000000000000000000000000000000000000000000000815230600482015290516000926001600160a01b0316916370a08231916024808301926020929190829003018186803b15801561124757600080fd5b505afa15801561125b573d6000803e3d6000fd5b505050506040513d602081101561127157600080fd5b5051905080611287575043600290910155611409565b60006112978360020154436117de565b905060006112be60095461061c866001015461086a60045487611b4c90919063ffffffff16565b6001546003549192506001600160a01b03908116916340c10f1991166112e584600a611ba5565b6040518363ffffffff1660e01b815260040180836001600160a01b0316815260200182815260200192505050600060405180830381600087803b15801561132b57600080fd5b505af115801561133f573d6000803e3d6000fd5b5050600154600254604080517f40c10f190000000000000000000000000000000000000000000000000000000081526001600160a01b0392831660048201526024810187905290519190921693506340c10f199250604480830192600092919082900301818387803b1580156113b457600080fd5b505af11580156113c8573d6000803e3d6000fd5b505050506113f66113eb8461061c64e8d4a5100085611b4c90919063ffffffff16565b600386015490611d78565b6003850155505043600290920191909155505b50565b60006007828154811061141b57fe5b60009182526020808320858452600882526040808520338087529352909320805460049093029093018054909450611460926001600160a01b03919091169190611cf3565b80546040805191825251849133917fbb757047c2b5f3974fe26b7c10f732e7bce710b0952a71082702781e62ae05959181900360200190a360008082556001909101555050565b6114af611dd2565b6001600160a01b03166114c06117cf565b6001600160a01b03161461151b576040805162461bcd60e51b815260206004820181905260248201527f4f776e61626c653a2063616c6c6572206973206e6f7420746865206f776e6572604482015290519081900360640190fd5b600555565b60075460005b8181101561153f57611537816111b4565b600101611526565b5050565b61154b611dd2565b6001600160a01b031661155c6117cf565b6001600160a01b0316146115b7576040805162461bcd60e51b815260206004820181905260248201527f4f776e61626c653a2063616c6c6572206973206e6f7420746865206f776e6572604482015290519081900360640190fd5b80156115c5576115c5611520565b6000600784815481106115d457fe5b906000526020600020906004020160010154905082600785815481106115f657fe5b906000526020600020906004020160010181905550828114610ac4576116318361162b83600954611c0c90919063ffffffff16565b90611d78565b600955610ac4611dd6565b611644611dd2565b6001600160a01b03166116556117cf565b6001600160a01b0316146116b0576040805162461bcd60e51b815260206004820181905260248201527f4f776e61626c653a2063616c6c6572206973206e6f7420746865206f776e6572604482015290519081900360640190fd5b600080546040516001600160a01b03909116907f8be0079c531659141344cd1fd0a4f28419497f9722a3daafe3b4186f6b6457e0908390a3600080547fffffffffffffffffffffffff0000000000000000000000000000000000000000169055565b6006546001600160a01b031681565b6002546001600160a01b031681565b60055481565b6003546001600160a01b03163314611795576040805162461bcd60e51b815260206004820152600960248201527f6465763a207775743f0000000000000000000000000000000000000000000000604482015290519081900360640190fd5b600380547fffffffffffffffffffffffff0000000000000000000000000000000000000000166001600160a01b0392909216919091179055565b6000546001600160a01b031690565b6005546000906117f29061086a8486611c0c565b9392505050565b611801611dd2565b6001600160a01b03166118126117cf565b6001600160a01b03161461186d576040805162461bcd60e51b815260206004820181905260248201527f4f776e61626c653a2063616c6c6572206973206e6f7420746865206f776e6572604482015290519081900360640190fd5b611875611520565b600455565b60086020908152600092835260408084209091529082529020805460019091015482565b6003546001600160a01b031681565b6001546001600160a01b031681565b8161190e576040805162461bcd60e51b815260206004820152601760248201527f6465706f7369742043414b45206279207374616b696e67000000000000000000604482015290519081900360640190fd5b60006007838154811061191d57fe5b6000918252602080832086845260088252604080852033865290925292206004909102909101915061194e846111b4565b805415611997576000611983826001015461062264e8d4a5100061061c87600301548760000154611b4c90919063ffffffff16565b90508015611995576119953382611c69565b505b82156119c35781546119b4906001600160a01b0316333086611e9b565b80546119c09084611d78565b81555b600382015481546119de9164e8d4a510009161061c91611b4c565b6001820155604080518481529051859133917f90890809c654f11d6e72a28fa60149770a0d11ec6c92319d6ceb2bb0a4ea1a159181900360200190a350505050565b611a28611dd2565b6001600160a01b0316611a396117cf565b6001600160a01b031614611a94576040805162461bcd60e51b815260206004820181905260248201527f4f776e61626c653a2063616c6c6572206973206e6f7420746865206f776e6572604482015290519081900360640190fd5b6001600160a01b038116611ad95760405162461bcd60e51b81526004018080602001828103825260268152602001806123666026913960400191505060405180910390fd5b600080546040516001600160a01b03808516939216917f8be0079c531659141344cd1fd0a4f28419497f9722a3daafe3b4186f6b6457e091a3600080547fffffffffffffffffffffffff0000000000000000000000000000000000000000166001600160a01b0392909216919091179055565b600082611b5b575060006108c3565b82820282848281611b6857fe5b04146117f25760405162461bcd60e51b81526004018080602001828103825260218152602001806123b26021913960400191505060405180910390fd5b6000808211611bfb576040805162461bcd60e51b815260206004820152601a60248201527f536166654d6174683a206469766973696f6e206279207a65726f000000000000604482015290519081900360640190fd5b818381611c0457fe5b049392505050565b600082821115611c63576040805162461bcd60e51b815260206004820152601e60248201527f536166654d6174683a207375627472616374696f6e206f766572666c6f770000604482015290519081900360640190fd5b50900390565b600254604080517fa2e6ddcc0000000000000000000000000000000000000000000000000000000081526001600160a01b038581166004830152602482018590529151919092169163a2e6ddcc91604480830192600092919082900301818387803b158015611cd757600080fd5b505af1158015611ceb573d6000803e3d6000fd5b505050505050565b604080516001600160a01b038416602482015260448082018490528251808303909101815260649091019091526020810180517bffffffffffffffffffffffffffffffffffffffffffffffffffffffff167fa9059cbb00000000000000000000000000000000000000000000000000000000179052611d73908490612079565b505050565b6000828201838110156117f2576040805162461bcd60e51b815260206004820152601b60248201527f536166654d6174683a206164646974696f6e206f766572666c6f770000000000604482015290519081900360640190fd5b3390565b600754600060015b82811015611e2157611e1760078281548110611df657fe5b90600052602060002090600402016001015483611d7890919063ffffffff16565b9150600101611dde565b50801561153f57611e33816003611ba5565b9050611e6d8161162b6007600081548110611e4a57fe5b906000526020600020906004020160010154600954611c0c90919063ffffffff16565b600981905550806007600081548110611e8257fe5b9060005260206000209060040201600101819055505050565b604080516001600160a01b0380861660248301528416604482015260648082018490528251808303909101815260849091019091526020810180517bffffffffffffffffffffffffffffffffffffffffffffffffffffffff167f23b872dd00000000000000000000000000000000000000000000000000000000179052610ac4908590612079565b801580611fc25750604080517fdd62ed3e0000000000000000000000000000000000000000000000000000000081523060048201526001600160a01b03848116602483015291519185169163dd62ed3e91604480820192602092909190829003018186803b158015611f9457600080fd5b505afa158015611fa8573d6000803e3d6000fd5b505050506040513d6020811015611fbe57600080fd5b5051155b611ffd5760405162461bcd60e51b81526004018080602001828103825260368152602001806123fd6036913960400191505060405180910390fd5b604080516001600160a01b038416602482015260448082018490528251808303909101815260649091019091526020810180517bffffffffffffffffffffffffffffffffffffffffffffffffffffffff167f095ea7b300000000000000000000000000000000000000000000000000000000179052611d739084905b60606120ce826040518060400160405280602081526020017f5361666545524332303a206c6f772d6c6576656c2063616c6c206661696c6564815250856001600160a01b031661212a9092919063ffffffff16565b805190915015611d73578080602001905160208110156120ed57600080fd5b5051611d735760405162461bcd60e51b815260040180806020018281038252602a8152602001806123d3602a913960400191505060405180910390fd5b60606121398484600085612141565b949350505050565b6060824710156121825760405162461bcd60e51b815260040180806020018281038252602681526020018061238c6026913960400191505060405180910390fd5b61218b856122bb565b6121dc576040805162461bcd60e51b815260206004820152601d60248201527f416464726573733a2063616c6c20746f206e6f6e2d636f6e7472616374000000604482015290519081900360640190fd5b60006060866001600160a01b031685876040518082805190602001908083835b6020831061223957805182527fffffffffffffffffffffffffffffffffffffffffffffffffffffffffffffffe090920191602091820191016121fc565b6001836020036101000a03801982511681845116808217855250505050505090500191505060006040518083038185875af1925050503d806000811461229b576040519150601f19603f3d011682016040523d82523d6000602084013e6122a0565b606091505b50915091506122b08282866122c1565b979650505050505050565b3b151590565b606083156122d05750816117f2565b8251156122e05782518084602001fd5b8160405162461bcd60e51b81526004018080602001828103825283818151815260200191508051906020019080838360005b8381101561232a578181015183820152602001612312565b50505050905090810190601f1680156123575780820380516001836020036101000a031916815260200191505b509250505060405180910390fdfe4f776e61626c653a206e6577206f776e657220697320746865207a65726f2061646472657373416464726573733a20696e73756666696369656e742062616c616e636520666f722063616c6c536166654d6174683a206d756c7469706c69636174696f6e206f766572666c6f775361666545524332303a204552433230206f7065726174696f6e20646964206e6f7420737563636565645361666545524332303a20617070726f76652066726f6d206e6f6e2d7a65726f20746f206e6f6e2d7a65726f20616c6c6f77616e6365a26469706673582212208b6410e388d91138f57b1d297b6400c5a58a7fe94a92888363b0680dd8eee97064736f6c634300060c0033",
  "linkReferences": {},
  "deployedLinkReferences": {}
}