{
  "_format": "hh-sol-artifact-1",
  "contractName": "StrategyPCS",
  "sourceName": "contracts/StrategyPCS.sol",
  "abi": [
    {
      "inputs": [
        {
          "internalType": "address[]",
          "name": "_addresses",
          "type": "address[]"
        },
        {
          "internalType": "uint256",
          "name": "_pid",
          "type": "uint256"
        },
        {
          "internalType": "bool",
          "name": "_isCAKEStaking",
          "type": "bool"
        },
        {
          "internalType": "bool",
          "name": "_isSameAssetDeposit",
          "type": "bool"
        },
        {
          "internalType": "bool",
          "name": "_isAutoComp",
          "type": "bool"
        },
        {
          "internalType": "bool",
          "name": "_isCollect",
          "type": "bool"
        },
        {
          "internalType": "address[]",
          "name": "_earnedToWBNBPath",
          "type": "address[]"
        },
        {
          "internalType": "address[]",
          "name": "_earnedToUpPath",
          "type": "address[]"
        },
        {
          "internalType": "address[]",
          "name": "_earnedToToken0Path",
          "type": "address[]"
        },
        {
          "internalType": "address[]",
          "name": "_earnedToToken1Path",
          "type": "address[]"
        },
        {
          "internalType": "address[]",
          "name": "_token0ToEarnedPath",
          "type": "address[]"
        },
        {
          "internalType": "address[]",
          "name": "_token1ToEarnedPath",
          "type": "address[]"
        },
        {
          "internalType": "uint256",
          "name": "_controllerFee",
          "type": "uint256"
        },
        {
          "internalType": "uint256",
          "name": "_buyBackRate",
          "type": "uint256"
        },
        {
          "internalType": "uint256",
          "name": "_entranceFeeFactor",
          "type": "uint256"
        },
        {
          "internalType": "uint256",
          "name": "_withdrawFeeFactor",
          "type": "uint256"
        }
      ],
      "stateMutability": "nonpayable",
      "type": "constructor"
    },
    {
      "anonymous": false,
      "inputs": [
        {
          "indexed": true,
          "internalType": "address",
          "name": "previousOwner",
          "type": "address"
        },
        {
          "indexed": true,
          "internalType": "address",
          "name": "newOwner",
          "type": "address"
        }
      ],
      "name": "OwnershipTransferred",
      "type": "event"
    },
    {
      "anonymous": false,
      "inputs": [
        {
          "indexed": false,
          "internalType": "address",
          "name": "account",
          "type": "address"
        }
      ],
      "name": "Paused",
      "type": "event"
    },
    {
      "anonymous": false,
      "inputs": [
        {
          "indexed": false,
          "internalType": "address",
          "name": "_buyBackAddress",
          "type": "address"
        }
      ],
      "name": "SetBuyBackAddress",
      "type": "event"
    },
    {
      "anonymous": false,
      "inputs": [
        {
          "indexed": false,
          "internalType": "address",
          "name": "_govAddress",
          "type": "address"
        }
      ],
      "name": "SetGov",
      "type": "event"
    },
    {
      "anonymous": false,
      "inputs": [
        {
          "indexed": false,
          "internalType": "bool",
          "name": "_onlyGov",
          "type": "bool"
        }
      ],
      "name": "SetOnlyGov",
      "type": "event"
    },
    {
      "anonymous": false,
      "inputs": [
        {
          "indexed": false,
          "internalType": "address",
          "name": "_rewardsAddress",
          "type": "address"
        }
      ],
      "name": "SetRewardsAddress",
      "type": "event"
    },
    {
      "anonymous": false,
      "inputs": [
        {
          "indexed": false,
          "internalType": "uint256",
          "name": "_entranceFeeFactor",
          "type": "uint256"
        },
        {
          "indexed": false,
          "internalType": "uint256",
          "name": "_withdrawFeeFactor",
          "type": "uint256"
        },
        {
          "indexed": false,
          "internalType": "uint256",
          "name": "_controllerFee",
          "type": "uint256"
        },
        {
          "indexed": false,
          "internalType": "uint256",
          "name": "_buyBackRate",
          "type": "uint256"
        },
        {
          "indexed": false,
          "internalType": "uint256",
          "name": "_slippageFactor",
          "type": "uint256"
        }
      ],
      "name": "SetSettings",
      "type": "event"
    },
    {
      "anonymous": false,
      "inputs": [
        {
          "indexed": false,
          "internalType": "address",
          "name": "_uniRouterAddress",
          "type": "address"
        }
      ],
      "name": "SetUniRouterAddress",
      "type": "event"
    },
    {
      "anonymous": false,
      "inputs": [
        {
          "indexed": false,
          "internalType": "address",
          "name": "account",
          "type": "address"
        }
      ],
      "name": "Unpaused",
      "type": "event"
    },
    {
      "inputs": [],
      "name": "UPAddress",
      "outputs": [
        {
          "internalType": "address",
          "name": "",
          "type": "address"
        }
      ],
      "stateMutability": "view",
      "type": "function"
    },
    {
      "inputs": [],
      "name": "UPFarmAddress",
      "outputs": [
        {
          "internalType": "address",
          "name": "",
          "type": "address"
        }
      ],
      "stateMutability": "view",
      "type": "function"
    },
    {
      "inputs": [],
      "name": "buyBackAddress",
      "outputs": [
        {
          "internalType": "address",
          "name": "",
          "type": "address"
        }
      ],
      "stateMutability": "view",
      "type": "function"
    },
    {
      "inputs": [],
      "name": "buyBackRate",
      "outputs": [
        {
          "internalType": "uint256",
          "name": "",
          "type": "uint256"
        }
      ],
      "stateMutability": "view",
      "type": "function"
    },
    {
      "inputs": [],
      "name": "buyBackRateMax",
      "outputs": [
        {
          "internalType": "uint256",
          "name": "",
          "type": "uint256"
        }
      ],
      "stateMutability": "view",
      "type": "function"
    },
    {
      "inputs": [],
      "name": "buyBackRateUL",
      "outputs": [
        {
          "internalType": "uint256",
          "name": "",
          "type": "uint256"
        }
      ],
      "stateMutability": "view",
      "type": "function"
    },
    {
      "inputs": [],
      "name": "controllerFee",
      "outputs": [
        {
          "internalType": "uint256",
          "name": "",
          "type": "uint256"
        }
      ],
      "stateMutability": "view",
      "type": "function"
    },
    {
      "inputs": [],
      "name": "controllerFeeMax",
      "outputs": [
        {
          "internalType": "uint256",
          "name": "",
          "type": "uint256"
        }
      ],
      "stateMutability": "view",
      "type": "function"
    },
    {
      "inputs": [],
      "name": "controllerFeeUL",
      "outputs": [
        {
          "internalType": "uint256",
          "name": "",
          "type": "uint256"
        }
      ],
      "stateMutability": "view",
      "type": "function"
    },
    {
      "inputs": [],
      "name": "convertDustToEarned",
      "outputs": [],
      "stateMutability": "nonpayable",
      "type": "function"
    },
    {
      "inputs": [
        {
          "internalType": "uint256",
          "name": "_wantAmt",
          "type": "uint256"
        }
      ],
      "name": "deposit",
      "outputs": [
        {
          "internalType": "uint256",
          "name": "",
          "type": "uint256"
        }
      ],
      "stateMutability": "nonpayable",
      "type": "function"
    },
    {
      "inputs": [],
      "name": "earn",
      "outputs": [],
      "stateMutability": "nonpayable",
      "type": "function"
    },
    {
      "inputs": [],
      "name": "earnedAddress",
      "outputs": [
        {
          "internalType": "address",
          "name": "",
          "type": "address"
        }
      ],
      "stateMutability": "view",
      "type": "function"
    },
    {
      "inputs": [
        {
          "internalType": "uint256",
          "name": "",
          "type": "uint256"
        }
      ],
      "name": "earnedToToken0Path",
      "outputs": [
        {
          "internalType": "address",
          "name": "",
          "type": "address"
        }
      ],
      "stateMutability": "view",
      "type": "function"
    },
    {
      "inputs": [
        {
          "internalType": "uint256",
          "name": "",
          "type": "uint256"
        }
      ],
      "name": "earnedToToken1Path",
      "outputs": [
        {
          "internalType": "address",
          "name": "",
          "type": "address"
        }
      ],
      "stateMutability": "view",
      "type": "function"
    },
    {
      "inputs": [
        {
          "internalType": "uint256",
          "name": "",
          "type": "uint256"
        }
      ],
      "name": "earnedToUpPath",
      "outputs": [
        {
          "internalType": "address",
          "name": "",
          "type": "address"
        }
      ],
      "stateMutability": "view",
      "type": "function"
    },
    {
      "inputs": [
        {
          "internalType": "uint256",
          "name": "",
          "type": "uint256"
        }
      ],
      "name": "earnedToWBNBPath",
      "outputs": [
        {
          "internalType": "address",
          "name": "",
          "type": "address"
        }
      ],
      "stateMutability": "view",
      "type": "function"
    },
    {
      "inputs": [],
      "name": "entranceFeeFactor",
      "outputs": [
        {
          "internalType": "uint256",
          "name": "",
          "type": "uint256"
        }
      ],
      "stateMutability": "view",
      "type": "function"
    },
    {
      "inputs": [],
      "name": "entranceFeeFactorLL",
      "outputs": [
        {
          "internalType": "uint256",
          "name": "",
          "type": "uint256"
        }
      ],
      "stateMutability": "view",
      "type": "function"
    },
    {
      "inputs": [],
      "name": "entranceFeeFactorMax",
      "outputs": [
        {
          "internalType": "uint256",
          "name": "",
          "type": "uint256"
        }
      ],
      "stateMutability": "view",
      "type": "function"
    },
    {
      "inputs": [],
      "name": "farm",
      "outputs": [],
      "stateMutability": "nonpayable",
      "type": "function"
    },
    {
      "inputs": [],
      "name": "farmContractAddress",
      "outputs": [
        {
          "internalType": "address",
          "name": "",
          "type": "address"
        }
      ],
      "stateMutability": "view",
      "type": "function"
    },
    {
      "inputs": [],
      "name": "govAddress",
      "outputs": [
        {
          "internalType": "address",
          "name": "",
          "type": "address"
        }
      ],
      "stateMutability": "view",
      "type": "function"
    },
    {
      "inputs": [
        {
          "internalType": "address",
          "name": "_token",
          "type": "address"
        },
        {
          "internalType": "uint256",
          "name": "_amount",
          "type": "uint256"
        },
        {
          "internalType": "address",
          "name": "_to",
          "type": "address"
        }
      ],
      "name": "inCaseTokensGetStuck",
      "outputs": [],
      "stateMutability": "nonpayable",
      "type": "function"
    },
    {
      "inputs": [],
      "name": "isAutoComp",
      "outputs": [
        {
          "internalType": "bool",
          "name": "",
          "type": "bool"
        }
      ],
      "stateMutability": "view",
      "type": "function"
    },
    {
      "inputs": [],
      "name": "isCAKEStaking",
      "outputs": [
        {
          "internalType": "bool",
          "name": "",
          "type": "bool"
        }
      ],
      "stateMutability": "view",
      "type": "function"
    },
    {
      "inputs": [],
      "name": "isCollect",
      "outputs": [
        {
          "internalType": "bool",
          "name": "",
          "type": "bool"
        }
      ],
      "stateMutability": "view",
      "type": "function"
    },
    {
      "inputs": [],
      "name": "isSameAssetDeposit",
      "outputs": [
        {
          "internalType": "bool",
          "name": "",
          "type": "bool"
        }
      ],
      "stateMutability": "view",
      "type": "function"
    },
    {
      "inputs": [],
      "name": "lastEarnBlock",
      "outputs": [
        {
          "internalType": "uint256",
          "name": "",
          "type": "uint256"
        }
      ],
      "stateMutability": "view",
      "type": "function"
    },
    {
      "inputs": [],
      "name": "onlyGov",
      "outputs": [
        {
          "internalType": "bool",
          "name": "",
          "type": "bool"
        }
      ],
      "stateMutability": "view",
      "type": "function"
    },
    {
      "inputs": [],
      "name": "owner",
      "outputs": [
        {
          "internalType": "address",
          "name": "",
          "type": "address"
        }
      ],
      "stateMutability": "view",
      "type": "function"
    },
    {
      "inputs": [],
      "name": "pause",
      "outputs": [],
      "stateMutability": "nonpayable",
      "type": "function"
    },
    {
      "inputs": [],
      "name": "paused",
      "outputs": [
        {
          "internalType": "bool",
          "name": "",
          "type": "bool"
        }
      ],
      "stateMutability": "view",
      "type": "function"
    },
    {
      "inputs": [],
      "name": "pid",
      "outputs": [
        {
          "internalType": "uint256",
          "name": "",
          "type": "uint256"
        }
      ],
      "stateMutability": "view",
      "type": "function"
    },
    {
      "inputs": [],
      "name": "renounceOwnership",
      "outputs": [],
      "stateMutability": "nonpayable",
      "type": "function"
    },
    {
      "inputs": [],
      "name": "rewardsAddress",
      "outputs": [
        {
          "internalType": "address",
          "name": "",
          "type": "address"
        }
      ],
      "stateMutability": "view",
      "type": "function"
    },
    {
      "inputs": [
        {
          "internalType": "address",
          "name": "_buyBackAddress",
          "type": "address"
        }
      ],
      "name": "setBuyBackAddress",
      "outputs": [],
      "stateMutability": "nonpayable",
      "type": "function"
    },
    {
      "inputs": [
        {
          "internalType": "address",
          "name": "_govAddress",
          "type": "address"
        }
      ],
      "name": "setGov",
      "outputs": [],
      "stateMutability": "nonpayable",
      "type": "function"
    },
    {
      "inputs": [
        {
          "internalType": "bool",
          "name": "_onlyGov",
          "type": "bool"
        }
      ],
      "name": "setOnlyGov",
      "outputs": [],
      "stateMutability": "nonpayable",
      "type": "function"
    },
    {
      "inputs": [
        {
          "internalType": "address",
          "name": "_rewardsAddress",
          "type": "address"
        }
      ],
      "name": "setRewardsAddress",
      "outputs": [],
      "stateMutability": "nonpayable",
      "type": "function"
    },
    {
      "inputs": [
        {
          "internalType": "uint256",
          "name": "_entranceFeeFactor",
          "type": "uint256"
        },
        {
          "internalType": "uint256",
          "name": "_withdrawFeeFactor",
          "type": "uint256"
        },
        {
          "internalType": "uint256",
          "name": "_controllerFee",
          "type": "uint256"
        },
        {
          "internalType": "uint256",
          "name": "_buyBackRate",
          "type": "uint256"
        },
        {
          "internalType": "uint256",
          "name": "_slippageFactor",
          "type": "uint256"
        }
      ],
      "name": "setSettings",
      "outputs": [],
      "stateMutability": "nonpayable",
      "type": "function"
    },
    {
      "inputs": [
        {
          "internalType": "address",
          "name": "_uniRouterAddress",
          "type": "address"
        }
      ],
      "name": "setUniRouterAddress",
      "outputs": [],
      "stateMutability": "nonpayable",
      "type": "function"
    },
    {
      "inputs": [],
      "name": "sharesTotal",
      "outputs": [
        {
          "internalType": "uint256",
          "name": "",
          "type": "uint256"
        }
      ],
      "stateMutability": "view",
      "type": "function"
    },
    {
      "inputs": [],
      "name": "slippageFactor",
      "outputs": [
        {
          "internalType": "uint256",
          "name": "",
          "type": "uint256"
        }
      ],
      "stateMutability": "view",
      "type": "function"
    },
    {
      "inputs": [],
      "name": "slippageFactorUL",
      "outputs": [
        {
          "internalType": "uint256",
          "name": "",
          "type": "uint256"
        }
      ],
      "stateMutability": "view",
      "type": "function"
    },
    {
      "inputs": [],
      "name": "token0Address",
      "outputs": [
        {
          "internalType": "address",
          "name": "",
          "type": "address"
        }
      ],
      "stateMutability": "view",
      "type": "function"
    },
    {
      "inputs": [
        {
          "internalType": "uint256",
          "name": "",
          "type": "uint256"
        }
      ],
      "name": "token0ToEarnedPath",
      "outputs": [
        {
          "internalType": "address",
          "name": "",
          "type": "address"
        }
      ],
      "stateMutability": "view",
      "type": "function"
    },
    {
      "inputs": [],
      "name": "token1Address",
      "outputs": [
        {
          "internalType": "address",
          "name": "",
          "type": "address"
        }
      ],
      "stateMutability": "view",
      "type": "function"
    },
    {
      "inputs": [
        {
          "internalType": "uint256",
          "name": "",
          "type": "uint256"
        }
      ],
      "name": "token1ToEarnedPath",
      "outputs": [
        {
          "internalType": "address",
          "name": "",
          "type": "address"
        }
      ],
      "stateMutability": "view",
      "type": "function"
    },
    {
      "inputs": [
        {
          "internalType": "address",
          "name": "newOwner",
          "type": "address"
        }
      ],
      "name": "transferOwnership",
      "outputs": [],
      "stateMutability": "nonpayable",
      "type": "function"
    },
    {
      "inputs": [],
      "name": "uniRouterAddress",
      "outputs": [
        {
          "internalType": "address",
          "name": "",
          "type": "address"
        }
      ],
      "stateMutability": "view",
      "type": "function"
    },
    {
      "inputs": [],
      "name": "unpause",
      "outputs": [],
      "stateMutability": "nonpayable",
      "type": "function"
    },
    {
      "inputs": [],
      "name": "wantAddress",
      "outputs": [
        {
          "internalType": "address",
          "name": "",
          "type": "address"
        }
      ],
      "stateMutability": "view",
      "type": "function"
    },
    {
      "inputs": [],
      "name": "wantLockedTotal",
      "outputs": [
        {
          "internalType": "uint256",
          "name": "",
          "type": "uint256"
        }
      ],
      "stateMutability": "view",
      "type": "function"
    },
    {
      "inputs": [],
      "name": "wbnbAddress",
      "outputs": [
        {
          "internalType": "address",
          "name": "",
          "type": "address"
        }
      ],
      "stateMutability": "view",
      "type": "function"
    },
    {
      "inputs": [
        {
          "internalType": "uint256",
          "name": "_wantAmt",
          "type": "uint256"
        }
      ],
      "name": "withdraw",
      "outputs": [
        {
          "internalType": "uint256",
          "name": "",
          "type": "uint256"
        }
      ],
      "stateMutability": "nonpayable",
      "type": "function"
    },
    {
      "inputs": [],
      "name": "withdrawFeeFactor",
      "outputs": [
        {
          "internalType": "uint256",
          "name": "",
          "type": "uint256"
        }
      ],
      "stateMutability": "view",
      "type": "function"
    },
    {
      "inputs": [],
      "name": "withdrawFeeFactorLL",
      "outputs": [
        {
          "internalType": "uint256",
          "name": "",
          "type": "uint256"
        }
      ],
      "stateMutability": "view",
      "type": "function"
    },
    {
      "inputs": [],
      "name": "withdrawFeeFactorMax",
      "outputs": [
        {
          "internalType": "uint256",
          "name": "",
          "type": "uint256"
        }
      ],
      "stateMutability": "view",
      "type": "function"
    },
    {
      "inputs": [],
      "name": "wrapBNB",
      "outputs": [],
      "stateMutability": "nonpayable",
      "type": "function"
    }
  ],
  "bytecode": "0x6080604052600c805460ff60a01b191690556000600d819055600e819055600f8190556010819055601155601280546001600160a01b03191661dead1790556127066014556127106015556103b66016553480156200005d57600080fd5b50604051620043173803806200431783398181016040526102008110156200008457600080fd5b8101908080516040519392919084640100000000821115620000a557600080fd5b908301906020820185811115620000bb57600080fd5b8251866020820283011164010000000082111715620000d957600080fd5b82525081516020918201928201910280838360005b8381101562000108578181015183820152602001620000ee565b505050509190910160408181526020840151908401516060850151608086015160a087015160c09097018051949993989297919650909493846401000000008211156200015457600080fd5b9083019060208201858111156200016a57600080fd5b82518660208202830111640100000000821117156200018857600080fd5b82525081516020918201928201910280838360005b83811015620001b75781810151838201526020016200019d565b5050505090500160405260200180516040519392919084640100000000821115620001e157600080fd5b908301906020820185811115620001f757600080fd5b82518660208202830111640100000000821117156200021557600080fd5b82525081516020918201928201910280838360005b83811015620002445781810151838201526020016200022a565b50505050905001604052602001805160405193929190846401000000008211156200026e57600080fd5b9083019060208201858111156200028457600080fd5b8251866020820283011164010000000082111715620002a257600080fd5b82525081516020918201928201910280838360005b83811015620002d1578181015183820152602001620002b7565b5050505090500160405260200180516040519392919084640100000000821115620002fb57600080fd5b9083019060208201858111156200031157600080fd5b82518660208202830111640100000000821117156200032f57600080fd5b82525081516020918201928201910280838360005b838110156200035e57818101518382015260200162000344565b50505050905001604052602001805160405193929190846401000000008211156200038857600080fd5b9083019060208201858111156200039e57600080fd5b8251866020820283011164010000000082111715620003bc57600080fd5b82525081516020918201928201910280838360005b83811015620003eb578181015183820152602001620003d1565b50505050905001604052602001805160405193929190846401000000008211156200041557600080fd5b9083019060208201858111156200042b57600080fd5b82518660208202830111640100000000821117156200044957600080fd5b82525081516020918201928201910280838360005b83811015620004785781810151838201526020016200045e565b505050509190910160409081526020830151908301516060840151608090940151919550935090506000620004ac620008fb565b600080546001600160a01b0319166001600160a01b038316908117825560405192935091600080516020620042f7833981519152908290a350600180819055506000600260006101000a81548160ff0219169083151502179055508f6000815181106200051557fe5b6020026020010151600960006101000a8154816001600160a01b0302191690836001600160a01b031602179055508f6001815181106200055157fe5b6020026020010151600c60006101000a8154816001600160a01b0302191690836001600160a01b031602179055508f6002815181106200058d57fe5b6020026020010151600a60006101000a8154816001600160a01b0302191690836001600160a01b031602179055508f600381518110620005c957fe5b6020026020010151600b60006101000a8154816001600160a01b0302191690836001600160a01b031602179055508f6004815181106200060557fe5b6020026020010151600460006101000a8154816001600160a01b0302191690836001600160a01b031602179055508f6005815181106200064157fe5b6020026020010151600560006101000a8154816001600160a01b0302191690836001600160a01b031602179055508f6006815181106200067d57fe5b6020026020010151600660006101000a8154816001600160a01b0302191690836001600160a01b031602179055508f600781518110620006b957fe5b6020026020010151600760006101000a8154816001600160a01b0302191690836001600160a01b031602179055508f600881518110620006f557fe5b6020026020010151600260056101000a8154816001600160a01b0302191690836001600160a01b031602179055508e6003819055508d600260016101000a81548160ff0219169083151502179055508c6002806101000a81548160ff0219169083151502179055508b600260036101000a81548160ff0219169083151502179055508a600260046101000a81548160ff0219169083151502179055508f6009815181106200079f57fe5b602090810291909101810151600880546001600160a01b0319166001600160a01b039092169190911790558951620007de91601791908c019062000a18565b508951620007f490601c9060208d019062000a18565b5087516200080a9060189060208b019062000a18565b508651620008209060199060208a019062000a18565b5085516200083690601a90602089019062000a18565b5084516200084c90601b90602088019062000a18565b50836010819055508f600a815181106200086257fe5b6020026020010151601360006101000a8154816001600160a01b0302191690836001600160a01b03160217905550826011819055508f600b81518110620008a557fe5b6020908102919091010151601280546001600160a01b0319166001600160a01b0392831617905560148390556015829055600a54620008e59116620008ff565b5050505050505050505050505050505062000aa3565b3390565b62000909620008fb565b6001600160a01b03166200091c62000a09565b6001600160a01b03161462000978576040805162461bcd60e51b815260206004820181905260248201527f4f776e61626c653a2063616c6c6572206973206e6f7420746865206f776e6572604482015290519081900360640190fd5b6001600160a01b038116620009bf5760405162461bcd60e51b8152600401808060200182810382526026815260200180620042d16026913960400191505060405180910390fd5b600080546040516001600160a01b0380851693921691600080516020620042f783398151915291a3600080546001600160a01b0319166001600160a01b0392909216919091179055565b6000546001600160a01b031690565b82805482825590600052602060002090810192821562000a70579160200282015b8281111562000a7057825182546001600160a01b0319166001600160a01b0390911617825560209092019160019091019062000a39565b5062000a7e92915062000a82565b5090565b5b8082111562000a7e5780546001600160a01b031916815560010162000a83565b61381e8062000ab36000396000f3fe608060405234801561001057600080fd5b50600436106103a35760003560e01c806384fa32ac116101e9578063c11c2e921161010f578063db22e43a116100ad578063ee50dc341161007c578063ee50dc3414610450578063f106845414610726578063f2fde38b1461072e578063ffbd3b1f14610754576103a3565b8063db22e43a14610706578063e5dd455a1461070e578063e719847414610716578063e7a036791461071e576103a3565b8063cfad57a2116100e9578063cfad57a2146106c8578063d389800f146106ee578063d5b09163146106f6578063d7cb416f146106fe576103a3565b8063c11c2e92146106a3578063c302a4d0146105ab578063c8e3d18b146106ab576103a3565b80639a24664311610187578063b6b55f2511610156578063b6b55f2514610659578063b74cd24214610676578063b77050e71461067e578063c0973eed1461069b576103a3565b80639a2466431461061b5780639fc33a9f14610623578063ad740f8c1461062b578063b3545c0114610651576103a3565b80638906758d116101c35780638906758d146105b35780638da5cb5b146105d9578063904a32f4146105e157806396e9aff8146105fe576103a3565b806384fa32ac1461056e57806385f02dd6146105a3578063866b2018146105ab576103a3565b806346008a07116102ce57806367206d401161026c578063783478ad1161023b578063783478ad1461054e5780637ff36fbe146105565780638456cb591461055e578063846d9e1714610566576103a3565b806367206d401461050057806368f5416214610536578063693a090b1461053e578063715018a614610546576103a3565b80635d82e33a116102a85780635d82e33a146104b55780635da79d63146104d257806363fe3e3a146104f857806367057b6c14610450576103a3565b806346008a07146104a55780634d9f7bb2146104505780635c975abb146104ad576103a3565b80632717eff311610346578063380eec2f11610315578063380eec2f146104855780633f4ba83a1461048d57806342da4eb31461049557806344a3955e1461049d576103a3565b80632717eff3146104505780632e1a7d4d1461045857806335c7f1211461047557806336e9332d1461047d576103a3565b80630daef321116103825780630daef3211461041c5780630fa4e01e146104385780631334903f14610440578063178a8d0714610448576103a3565b80627a2ae3146103a8578063061c7d48146103e15780630b6bb30b146103fb575b600080fd5b6103c5600480360360208110156103be57600080fd5b503561075c565b604080516001600160a01b039092168252519081900360200190f35b6103e9610783565b60408051918252519081900360200190f35b61041a6004803603602081101561041157600080fd5b50351515610789565b005b610424610869565b604080519115158252519081900360200190f35b6103e961088a565b6103e9610890565b6103e9610896565b6103e961089c565b6103e96004803603602081101561046e57600080fd5b50356108a2565b6103c5610b3b565b61041a610b4a565b6103c5610bb5565b61041a610bc4565b6103e9610c2f565b6103e9610c35565b6103c5610c3b565b610424610c4a565b6103c5600480360360208110156104cb57600080fd5b5035610c53565b61041a600480360360208110156104e857600080fd5b50356001600160a01b0316610c60565b6103c5610d2d565b61041a6004803603606081101561051657600080fd5b506001600160a01b03813581169160208101359160409091013516610d3c565b6103e9610e7c565b6103c5610e82565b61041a610e91565b6103c5610f67565b6103c5610f76565b61041a610f85565b610424610fee565b61041a600480360360a081101561058457600080fd5b5080359060208101359060408101359060608101359060800135610ffc565b6103e961132c565b6103e9611332565b61041a600480360360208110156105c957600080fd5b50356001600160a01b0316611338565b6103c5611405565b6103c5600480360360208110156105f757600080fd5b5035611414565b6103c56004803603602081101561061457600080fd5b5035611421565b61042461142e565b6103c561143d565b61041a6004803603602081101561064157600080fd5b50356001600160a01b0316611455565b6103e9611522565b6103e96004803603602081101561066f57600080fd5b5035611528565b6103e9611701565b6103c56004803603602081101561069457600080fd5b5035611707565b6103c5611714565b61041a611723565b6103c5600480360360208110156106c157600080fd5b5035611b07565b61041a600480360360208110156106de57600080fd5b50356001600160a01b0316611b14565b61041a611be1565b61041a612295565b6103c56122fe565b61042461230d565b61042461231e565b6103c561232e565b6103c561233d565b6103e961234c565b61041a6004803603602081101561074457600080fd5b50356001600160a01b0316612352565b6103e961247e565b601b818154811061076957fe5b6000918252602090912001546001600160a01b0316905081565b61012c81565b600c546001600160a01b031633146107ea576040805162461bcd60e51b8152602060048083019190915260248201527f21676f7600000000000000000000000000000000000000000000000000000000604482015290519081900360640190fd5b600c80548215157401000000000000000000000000000000000000000081027fffffffffffffffffffffff00ffffffffffffffffffffffffffffffffffffffff9092169190911790915560408051918252517f125177ac7b8930dac1e59c2b30b1b6b9191b30af40cf6bbb5d20fec4d44be60f9181900360200190a150565b600c5474010000000000000000000000000000000000000000900460ff1681565b600d5481565b60145481565b60115481565b61271081565b60006108ac612484565b6001600160a01b03166108bd611405565b6001600160a01b031614610918576040805162461bcd60e51b815260206004820181905260248201527f4f776e61626c653a2063616c6c6572206973206e6f7420746865206f776e6572604482015290519081900360640190fd5b60026001541415610970576040805162461bcd60e51b815260206004820152601f60248201527f5265656e7472616e637947756172643a207265656e7472616e742063616c6c00604482015290519081900360640190fd5b6002600155816109c7576040805162461bcd60e51b815260206004820152600d60248201527f5f77616e74416d74203c3d203000000000000000000000000000000000000000604482015290519081900360640190fd5b60006109ea600e546109e4600f548661248890919063ffffffff16565b906124ea565b9050600f548111156109fb5750600f545b600f54610a089082612551565b600f556015546127101115610a3557610a326127106109e46015548661248890919063ffffffff16565b92505b6002546301000000900460ff1615610a5057610a50836125ae565b60048054604080517f70a082310000000000000000000000000000000000000000000000000000000081523093810193909352516000926001600160a01b03909216916370a08231916024808301926020929190829003018186803b158015610ab857600080fd5b505afa158015610acc573d6000803e3d6000fd5b505050506040513d6020811015610ae257600080fd5b5051905080841115610af2578093505b83600e541015610b0257600e5493505b600e54610b0f9085612551565b600e55610b30610b1d611405565b6004546001600160a01b031690866126b7565b506001805592915050565b600a546001600160a01b031681565b60026001541415610ba2576040805162461bcd60e51b815260206004820152601f60248201527f5265656e7472616e637947756172643a207265656e7472616e742063616c6c00604482015290519081900360640190fd5b6002600155610baf612737565b60018055565b600b546001600160a01b031681565b600c546001600160a01b03163314610c25576040805162461bcd60e51b8152602060048083019190915260248201527f21676f7600000000000000000000000000000000000000000000000000000000604482015290519081900360640190fd5b610c2d612933565b565b600e5481565b600f5481565b600c546001600160a01b031681565b60025460ff1690565b601c818154811061076957fe5b600c546001600160a01b03163314610cc1576040805162461bcd60e51b8152602060048083019190915260248201527f21676f7600000000000000000000000000000000000000000000000000000000604482015290519081900360640190fd5b600880546001600160a01b0383167fffffffffffffffffffffffff0000000000000000000000000000000000000000909116811790915560408051918252517f384f1dcb79da4071839c471d7c81884a43fb946a527f3661fdee5904adc8f6579181900360200190a150565b6009546001600160a01b031681565b600c546001600160a01b03163314610d9d576040805162461bcd60e51b8152602060048083019190915260248201527f21676f7600000000000000000000000000000000000000000000000000000000604482015290519081900360640190fd5b6007546001600160a01b0384811691161415610e00576040805162461bcd60e51b815260206004820152600560248201527f2173616665000000000000000000000000000000000000000000000000000000604482015290519081900360640190fd5b6004546001600160a01b0384811691161415610e63576040805162461bcd60e51b815260206004820152600560248201527f2173616665000000000000000000000000000000000000000000000000000000604482015290519081900360640190fd5b610e776001600160a01b03841682846126b7565b505050565b60155481565b6008546001600160a01b031681565b610e99612484565b6001600160a01b0316610eaa611405565b6001600160a01b031614610f05576040805162461bcd60e51b815260206004820181905260248201527f4f776e61626c653a2063616c6c6572206973206e6f7420746865206f776e6572604482015290519081900360640190fd5b600080546040516001600160a01b03909116907f8be0079c531659141344cd1fd0a4f28419497f9722a3daafe3b4186f6b6457e0908390a3600080547fffffffffffffffffffffffff0000000000000000000000000000000000000000169055565b6012546001600160a01b031681565b6005546001600160a01b031681565b600c546001600160a01b03163314610fe6576040805162461bcd60e51b8152602060048083019190915260248201527f21676f7600000000000000000000000000000000000000000000000000000000604482015290519081900360640190fd5b610c2d6129fa565b600254610100900460ff1681565b600c546001600160a01b0316331461105d576040805162461bcd60e51b8152602060048083019190915260248201527f21676f7600000000000000000000000000000000000000000000000000000000604482015290519081900360640190fd5b6126de8510156110b4576040805162461bcd60e51b815260206004820152601a60248201527f5f656e7472616e6365466565466163746f7220746f6f206c6f77000000000000604482015290519081900360640190fd5b61271085111561110b576040805162461bcd60e51b815260206004820152601b60248201527f5f656e7472616e6365466565466163746f7220746f6f20686967680000000000604482015290519081900360640190fd5b60148590556126de841015611167576040805162461bcd60e51b815260206004820152601a60248201527f5f7769746864726177466565466163746f7220746f6f206c6f77000000000000604482015290519081900360640190fd5b6127108411156111be576040805162461bcd60e51b815260206004820152601b60248201527f5f7769746864726177466565466163746f7220746f6f20686967680000000000604482015290519081900360640190fd5b601584905561012c83111561121a576040805162461bcd60e51b815260206004820152601760248201527f5f636f6e74726f6c6c657246656520746f6f2068696768000000000000000000604482015290519081900360640190fd5b6010839055610320821115611276576040805162461bcd60e51b815260206004820152601560248201527f5f6275794261636b5261746520746f6f20686967680000000000000000000000604482015290519081900360640190fd5b60118290556103e38111156112d2576040805162461bcd60e51b815260206004820152601860248201527f5f736c697070616765466163746f7220746f6f20686967680000000000000000604482015290519081900360640190fd5b60168190556040805186815260208101869052808201859052606081018490526080810183905290517fc67e0b149a57a70fa44a531a46c2c6d8e0b242fa12f459f250012c3a5987d29a9181900360a00190a15050505050565b60105481565b6126de81565b600c546001600160a01b03163314611399576040805162461bcd60e51b8152602060048083019190915260248201527f21676f7600000000000000000000000000000000000000000000000000000000604482015290519081900360640190fd5b601380546001600160a01b0383167fffffffffffffffffffffffff0000000000000000000000000000000000000000909116811790915560408051918252517fa69f1931be99336e049905baa11d21ed44204d7686e46b4344404d80d47c29889181900360200190a150565b6000546001600160a01b031690565b6017818154811061076957fe5b6019818154811061076957fe5b60025462010000900460ff1681565b6002546501000000000090046001600160a01b031681565b600c546001600160a01b031633146114b6576040805162461bcd60e51b8152602060048083019190915260248201527f21676f7600000000000000000000000000000000000000000000000000000000604482015290519081900360640190fd5b601280546001600160a01b0383167fffffffffffffffffffffffff0000000000000000000000000000000000000000909116811790915560408051918252517f200c92aaea275302bf641e37f7a5dda63f445f08f4fc74a5cde7fd643f609e099181900360200190a150565b61032081565b6000611532612484565b6001600160a01b0316611543611405565b6001600160a01b03161461159e576040805162461bcd60e51b815260206004820181905260248201527f4f776e61626c653a2063616c6c6572206973206e6f7420746865206f776e6572604482015290519081900360640190fd5b600260015414156115f6576040805162461bcd60e51b815260206004820152601f60248201527f5265656e7472616e637947756172643a207265656e7472616e742063616c6c00604482015290519081900360640190fd5b6002600155611603610c4a565b15611655576040805162461bcd60e51b815260206004820152601060248201527f5061757361626c653a2070617573656400000000000000000000000000000000604482015290519081900360640190fd5b60045461166d906001600160a01b0316333085612aa8565b600e5482901580159061168257506000600f54115b156116b7576116b46127106109e4600e546109e46014546116ae600f548a61248890919063ffffffff16565b90612488565b90505b600f546116c49082612b36565b600f556002546301000000900460ff16156116e6576116e1612737565b6116f7565b600e546116f39084612b36565b600e555b6001805592915050565b6103e381565b601a818154811061076957fe5b6013546001600160a01b031681565b61172b610c4a565b1561177d576040805162461bcd60e51b815260206004820152601060248201527f5061757361626c653a2070617573656400000000000000000000000000000000604482015290519081900360640190fd5b6002546301000000900460ff166117db576040805162461bcd60e51b815260206004820152600b60248201527f2169734175746f436f6d70000000000000000000000000000000000000000000604482015290519081900360640190fd5b600254610100900460ff1615611838576040805162461bcd60e51b815260206004820152600d60248201527f697343414b455374616b696e6700000000000000000000000000000000000000604482015290519081900360640190fd5b600554604080517f70a0823100000000000000000000000000000000000000000000000000000000815230600482015290516000926001600160a01b0316916370a08231916024808301926020929190829003018186803b15801561189c57600080fd5b505afa1580156118b0573d6000803e3d6000fd5b505050506040513d60208110156118c657600080fd5b50516007546005549192506001600160a01b039182169116148015906118ec5750600081115b156119a15760085460055461190e916001600160a01b03918216911683612b90565b6119a1600860009054906101000a90046001600160a01b031682601654601a80548060200260200160405190810160405280929190818152602001828054801561198157602002820191906000526020600020905b81546001600160a01b03168152600190910190602001808311611963575b50505050503061199c61025842612b3690919063ffffffff16565b612ca9565b600654604080517f70a0823100000000000000000000000000000000000000000000000000000000815230600482015290516000926001600160a01b0316916370a08231916024808301926020929190829003018186803b158015611a0557600080fd5b505afa158015611a19573d6000803e3d6000fd5b505050506040513d6020811015611a2f57600080fd5b50516007546006549192506001600160a01b03918216911614801590611a555750600081115b15611b0357600854600654611a77916001600160a01b03918216911683612b90565b611b03600860009054906101000a90046001600160a01b031682601654601b805480602002602001604051908101604052809291908181526020018280548015611981576020028201919060005260206000209081546001600160a01b031681526001909101906020018083116119635750505050503061199c61025842612b3690919063ffffffff16565b5050565b6018818154811061076957fe5b600c546001600160a01b03163314611b75576040805162461bcd60e51b8152602060048083019190915260248201527f21676f7600000000000000000000000000000000000000000000000000000000604482015290519081900360640190fd5b600c80546001600160a01b0383167fffffffffffffffffffffffff0000000000000000000000000000000000000000909116811790915560408051918252517f91a8c1cc2d4a3bb60738481947a00cbb9899c822916694cf8bb1d68172fdcd549181900360200190a150565b60026001541415611c39576040805162461bcd60e51b815260206004820152601f60248201527f5265656e7472616e637947756172643a207265656e7472616e742063616c6c00604482015290519081900360640190fd5b6002600155611c46610c4a565b15611c98576040805162461bcd60e51b815260206004820152601060248201527f5061757361626c653a2070617573656400000000000000000000000000000000604482015290519081900360640190fd5b6002546301000000900460ff16611cf6576040805162461bcd60e51b815260206004820152600b60248201527f2169734175746f436f6d70000000000000000000000000000000000000000000604482015290519081900360640190fd5b600c5474010000000000000000000000000000000000000000900460ff1615611d7a57600c546001600160a01b03163314611d7a576040805162461bcd60e51b8152602060048083019190915260248201527f21676f7600000000000000000000000000000000000000000000000000000000604482015290519081900360640190fd5b611d82612f4a565b600254640100000000900460ff1615611da657611d9d612f54565b43600d55610baf565b6009546007546001600160a01b0390811691161415611dc757611dc7613042565b600754604080517f70a0823100000000000000000000000000000000000000000000000000000000815230600482015290516000926001600160a01b0316916370a08231916024808301926020929190829003018186803b158015611e2b57600080fd5b505afa158015611e3f573d6000803e3d6000fd5b505050506040513d6020811015611e5557600080fd5b50519050611e62816130b5565b9050611e6d816131ab565b600254909150610100900460ff1680611e8e575060025462010000900460ff165b15611ea55743600d55611e9f612737565b50610baf565b600854600754611ec3916001600160a01b03918216911660006132d9565b600854600754611ee0916001600160a01b03918216911683612b90565b6005546007546001600160a01b03908116911614611f8557600854611f85906001600160a01b0316611f138360026124ea565b6016546018805480602002602001604051908101604052809291908181526020018280548015611981576020028201919060005260206000209081546001600160a01b031681526001909101906020018083116119635750505050503061199c61025842612b3690919063ffffffff16565b6006546007546001600160a01b0390811691161461202a5760085461202a906001600160a01b0316611fb88360026124ea565b6016546019805480602002602001604051908101604052809291908181526020018280548015611981576020028201919060005260206000209081546001600160a01b031681526001909101906020018083116119635750505050503061199c61025842612b3690919063ffffffff16565b600554604080517f70a0823100000000000000000000000000000000000000000000000000000000815230600482015290516000926001600160a01b0316916370a08231916024808301926020929190829003018186803b15801561208e57600080fd5b505afa1580156120a2573d6000803e3d6000fd5b505050506040513d60208110156120b857600080fd5b5051600654604080517f70a0823100000000000000000000000000000000000000000000000000000000815230600482015290519293506000926001600160a01b03909216916370a0823191602480820192602092909190829003018186803b15801561212457600080fd5b505afa158015612138573d6000803e3d6000fd5b505050506040513d602081101561214e57600080fd5b5051905081158015906121615750600081115b1561228057600854600554612183916001600160a01b03918216911684612b90565b6008546006546121a0916001600160a01b03918216911683612b90565b6008546005546006546001600160a01b039283169263e8e3370092811691168585600080306121d142610258612b36565b6040518963ffffffff1660e01b815260040180896001600160a01b03168152602001886001600160a01b03168152602001878152602001868152602001858152602001848152602001836001600160a01b0316815260200182815260200198505050505050505050606060405180830381600087803b15801561225357600080fd5b505af1158015612267573d6000803e3d6000fd5b505050506040513d606081101561227d57600080fd5b50505b43600d5561228c612737565b50505060018055565b600c546001600160a01b031633146122f6576040805162461bcd60e51b8152602060048083019190915260248201527f21676f7600000000000000000000000000000000000000000000000000000000604482015290519081900360640190fd5b610c2d613042565b6006546001600160a01b031681565b600254640100000000900460ff1681565b6002546301000000900460ff1681565b6007546001600160a01b031681565b6004546001600160a01b031681565b60035481565b61235a612484565b6001600160a01b031661236b611405565b6001600160a01b0316146123c6576040805162461bcd60e51b815260206004820181905260248201527f4f776e61626c653a2063616c6c6572206973206e6f7420746865206f776e6572604482015290519081900360640190fd5b6001600160a01b03811661240b5760405162461bcd60e51b815260040180806020018281038252602681526020018061371c6026913960400191505060405180910390fd5b600080546040516001600160a01b03808516939216917f8be0079c531659141344cd1fd0a4f28419497f9722a3daafe3b4186f6b6457e091a3600080547fffffffffffffffffffffffff0000000000000000000000000000000000000000166001600160a01b0392909216919091179055565b60165481565b3390565b600082612497575060006124e4565b828202828482816124a457fe5b04146124e15760405162461bcd60e51b81526004018080602001828103825260218152602001806137686021913960400191505060405180910390fd5b90505b92915050565b6000808211612540576040805162461bcd60e51b815260206004820152601a60248201527f536166654d6174683a206469766973696f6e206279207a65726f000000000000604482015290519081900360640190fd5b81838161254957fe5b049392505050565b6000828211156125a8576040805162461bcd60e51b815260206004820152601e60248201527f536166654d6174683a207375627472616374696f6e206f766572666c6f770000604482015290519081900360640190fd5b50900390565b600254610100900460ff161561263657600260059054906101000a90046001600160a01b03166001600160a01b0316631058d281826040518263ffffffff1660e01b815260040180828152602001915050600060405180830381600087803b15801561261957600080fd5b505af115801561262d573d6000803e3d6000fd5b505050506126b4565b600260059054906101000a90046001600160a01b03166001600160a01b031663441a3e70600354836040518363ffffffff1660e01b81526004018083815260200182815260200192505050600060405180830381600087803b15801561269b57600080fd5b505af11580156126af573d6000803e3d6000fd5b505050505b50565b604080516001600160a01b038416602482015260448082018490528251808303909101815260649091019091526020810180517bffffffffffffffffffffffffffffffffffffffffffffffffffffffff167fa9059cbb00000000000000000000000000000000000000000000000000000000179052610e7790849061342f565b6002546301000000900460ff16612795576040805162461bcd60e51b815260206004820152600b60248201527f2169734175746f436f6d70000000000000000000000000000000000000000000604482015290519081900360640190fd5b60048054604080517f70a082310000000000000000000000000000000000000000000000000000000081523093810193909352516000926001600160a01b03909216916370a08231916024808301926020929190829003018186803b1580156127fd57600080fd5b505afa158015612811573d6000803e3d6000fd5b505050506040513d602081101561282757600080fd5b5051600e549091506128399082612b36565b600e55600254600454612863916001600160a01b0391821691650100000000009091041683612b90565b600254610100900460ff16156128ce57600260059054906101000a90046001600160a01b03166001600160a01b03166341441d3b826040518263ffffffff1660e01b815260040180828152602001915050600060405180830381600087803b15801561261957600080fd5b600260059054906101000a90046001600160a01b03166001600160a01b031663e2bbb158600354836040518363ffffffff1660e01b81526004018083815260200182815260200192505050600060405180830381600087803b15801561269b57600080fd5b61293b610c4a565b61298c576040805162461bcd60e51b815260206004820152601460248201527f5061757361626c653a206e6f7420706175736564000000000000000000000000604482015290519081900360640190fd5b600280547fffffffffffffffffffffffffffffffffffffffffffffffffffffffffffffff001690557f5db9ee0a495bf2e6ff9c91a7834c1ba4fdd244a5e8aa4e537bd38aeae4b073aa6129dd612484565b604080516001600160a01b039092168252519081900360200190a1565b612a02610c4a565b15612a54576040805162461bcd60e51b815260206004820152601060248201527f5061757361626c653a2070617573656400000000000000000000000000000000604482015290519081900360640190fd5b600280547fffffffffffffffffffffffffffffffffffffffffffffffffffffffffffffff001660011790557f62e78cea01bee320cd4e420270b5ea74000d11b0c9f74754ebdbfc544b05a2586129dd612484565b604080516001600160a01b0380861660248301528416604482015260648082018490528251808303909101815260849091019091526020810180517bffffffffffffffffffffffffffffffffffffffffffffffffffffffff167f23b872dd00000000000000000000000000000000000000000000000000000000179052612b3090859061342f565b50505050565b6000828201838110156124e1576040805162461bcd60e51b815260206004820152601b60248201527f536166654d6174683a206164646974696f6e206f766572666c6f770000000000604482015290519081900360640190fd5b6000612c2682856001600160a01b031663dd62ed3e30876040518363ffffffff1660e01b815260040180836001600160a01b03168152602001826001600160a01b031681526020019250505060206040518083038186803b158015612bf457600080fd5b505afa158015612c08573d6000803e3d6000fd5b505050506040513d6020811015612c1e57600080fd5b505190612b36565b604080516001600160a01b038616602482015260448082018490528251808303909101815260649091019091526020810180517bffffffffffffffffffffffffffffffffffffffffffffffffffffffff167f095ea7b300000000000000000000000000000000000000000000000000000000179052909150612b3090859061342f565b604080517fd06ca61f00000000000000000000000000000000000000000000000000000000815260048101878152602482019283528551604483015285516060936001600160a01b038b169363d06ca61f938b938a939192606401906020808601910280838360005b83811015612d2a578181015183820152602001612d12565b50505050905001935050505060006040518083038186803b158015612d4e57600080fd5b505afa158015612d62573d6000803e3d6000fd5b505050506040513d6000823e601f3d9081017fffffffffffffffffffffffffffffffffffffffffffffffffffffffffffffffe01682016040526020811015612da957600080fd5b8101908080516040519392919084640100000000821115612dc957600080fd5b908301906020820185811115612dde57600080fd5b8251866020820283011164010000000082111715612dfb57600080fd5b82525081516020918201928201910280838360005b83811015612e28578181015183820152602001612e10565b505050509050016040525050509050600081612e4f6001845161255190919063ffffffff16565b81518110612e5957fe5b60200260200101519050876001600160a01b0316635c11d79588612e8c6103e86109e48b8761248890919063ffffffff16565b8888886040518663ffffffff1660e01b81526004018086815260200185815260200180602001846001600160a01b03168152602001838152602001828103825285818151815260200191508051906020019060200280838360005b83811015612eff578181015183820152602001612ee7565b505050509050019650505050505050600060405180830381600087803b158015612f2857600080fd5b505af1158015612f3c573d6000803e3d6000fd5b505050505050505050505050565b610c2d60006125ae565b6009546007546001600160a01b0390811691161415612f7557612f75613042565b600754604080517f70a0823100000000000000000000000000000000000000000000000000000000815230600482015290516000926001600160a01b0316916370a08231916024808301926020929190829003018186803b158015612fd957600080fd5b505afa158015612fed573d6000803e3d6000fd5b505050506040513d602081101561300357600080fd5b50519050801580159061302057506013546001600160a01b031615155b156126b4576013546007546126b4916001600160a01b039182169116836126b7565b4780156126b457600960009054906101000a90046001600160a01b03166001600160a01b031663d0e30db0826040518263ffffffff1660e01b81526004016000604051808303818588803b15801561309957600080fd5b505af11580156130ad573d6000803e3d6000fd5b505050505050565b600081156131a357601054156131a35760006130e26127106109e46010548661248890919063ffffffff16565b600854600754919250613102916001600160a01b03908116911683612b90565b613195600860009054906101000a90046001600160a01b031682601654601c80548060200260200160405190810160405280929190818152602001828054801561317557602002820191906000526020600020905b81546001600160a01b03168152600190910190602001808311613157575b50506013546001600160a01b0316925061199c9150429050610258612b36565b61319f8382612551565b9250505b50805b919050565b600080601154116131bd5750806131a6565b60006131da6127106109e46011548661248890919063ffffffff16565b600b546007549192506001600160a01b039182169116141561321857601254600754613213916001600160a01b039182169116836126b7565b6132c8565b600854600754613235916001600160a01b03918216911683612b90565b6132c8600860009054906101000a90046001600160a01b03168260165460178054806020026020016040519081016040528092919081815260200182805480156132a857602002820191906000526020600020905b81546001600160a01b0316815260019091019060200180831161328a575b50506012546001600160a01b0316925061199c9150429050610258612b36565b6132d28382612551565b9392505050565b8015806133785750604080517fdd62ed3e0000000000000000000000000000000000000000000000000000000081523060048201526001600160a01b03848116602483015291519185169163dd62ed3e91604480820192602092909190829003018186803b15801561334a57600080fd5b505afa15801561335e573d6000803e3d6000fd5b505050506040513d602081101561337457600080fd5b5051155b6133b35760405162461bcd60e51b81526004018080602001828103825260368152602001806137b36036913960400191505060405180910390fd5b604080516001600160a01b038416602482015260448082018490528251808303909101815260649091019091526020810180517bffffffffffffffffffffffffffffffffffffffffffffffffffffffff167f095ea7b300000000000000000000000000000000000000000000000000000000179052610e779084905b6060613484826040518060400160405280602081526020017f5361666545524332303a206c6f772d6c6576656c2063616c6c206661696c6564815250856001600160a01b03166134e09092919063ffffffff16565b805190915015610e77578080602001905160208110156134a357600080fd5b5051610e775760405162461bcd60e51b815260040180806020018281038252602a815260200180613789602a913960400191505060405180910390fd5b60606134ef84846000856134f7565b949350505050565b6060824710156135385760405162461bcd60e51b81526004018080602001828103825260268152602001806137426026913960400191505060405180910390fd5b61354185613671565b613592576040805162461bcd60e51b815260206004820152601d60248201527f416464726573733a2063616c6c20746f206e6f6e2d636f6e7472616374000000604482015290519081900360640190fd5b60006060866001600160a01b031685876040518082805190602001908083835b602083106135ef57805182527fffffffffffffffffffffffffffffffffffffffffffffffffffffffffffffffe090920191602091820191016135b2565b6001836020036101000a03801982511681845116808217855250505050505090500191505060006040518083038185875af1925050503d8060008114613651576040519150601f19603f3d011682016040523d82523d6000602084013e613656565b606091505b5091509150613666828286613677565b979650505050505050565b3b151590565b606083156136865750816132d2565b8251156136965782518084602001fd5b8160405162461bcd60e51b81526004018080602001828103825283818151815260200191508051906020019080838360005b838110156136e05781810151838201526020016136c8565b50505050905090810190601f16801561370d5780820380516001836020036101000a031916815260200191505b509250505060405180910390fdfe4f776e61626c653a206e6577206f776e657220697320746865207a65726f2061646472657373416464726573733a20696e73756666696369656e742062616c616e636520666f722063616c6c536166654d6174683a206d756c7469706c69636174696f6e206f766572666c6f775361666545524332303a204552433230206f7065726174696f6e20646964206e6f7420737563636565645361666545524332303a20617070726f76652066726f6d206e6f6e2d7a65726f20746f206e6f6e2d7a65726f20616c6c6f77616e6365a26469706673582212201095479d960e61126ce98041cbbf7dc005c48cd4ff73907005491b5375aedaaa64736f6c634300060c00334f776e61626c653a206e6577206f776e657220697320746865207a65726f20616464726573738be0079c531659141344cd1fd0a4f28419497f9722a3daafe3b4186f6b6457e0",
  "linkReferences": {},
  "deployedLinkReferences": {}
}