{
  "_format": "hh-sol-artifact-1",
  "contractName": "StrategyMars",
  "sourceName": "contracts/StrategyMars.sol",
  "abi": [
    {
      "inputs": [
        {
          "internalType": "address[]",
          "name": "_addresses",
          "type": "address[]"
        },
        {
          "internalType": "uint256",
          "name": "_pid",
          "type": "uint256"
        },
        {
          "internalType": "address[]",
          "name": "_earnedToWBNBPath",
          "type": "address[]"
        },
        {
          "internalType": "address[]",
          "name": "_earnedToUpPath",
          "type": "address[]"
        },
        {
          "internalType": "address[]",
          "name": "_earnedToToken0Path",
          "type": "address[]"
        },
        {
          "internalType": "address[]",
          "name": "_earnedToToken1Path",
          "type": "address[]"
        },
        {
          "internalType": "address[]",
          "name": "_wbnbToXmsPath",
          "type": "address[]"
        },
        {
          "internalType": "uint256",
          "name": "_controllerFee",
          "type": "uint256"
        },
        {
          "internalType": "uint256",
          "name": "_buyBackRate",
          "type": "uint256"
        },
        {
          "internalType": "uint256",
          "name": "_entranceFeeFactor",
          "type": "uint256"
        },
        {
          "internalType": "uint256",
          "name": "_withdrawFeeFactor",
          "type": "uint256"
        },
        {
          "internalType": "bool",
          "name": "_isCollect",
          "type": "bool"
        }
      ],
      "stateMutability": "nonpayable",
      "type": "constructor"
    },
    {
      "anonymous": false,
      "inputs": [
        {
          "indexed": true,
          "internalType": "address",
          "name": "previousOwner",
          "type": "address"
        },
        {
          "indexed": true,
          "internalType": "address",
          "name": "newOwner",
          "type": "address"
        }
      ],
      "name": "OwnershipTransferred",
      "type": "event"
    },
    {
      "anonymous": false,
      "inputs": [
        {
          "indexed": false,
          "internalType": "address",
          "name": "account",
          "type": "address"
        }
      ],
      "name": "Paused",
      "type": "event"
    },
    {
      "anonymous": false,
      "inputs": [
        {
          "indexed": false,
          "internalType": "address",
          "name": "_buyBackAddress",
          "type": "address"
        }
      ],
      "name": "SetBuyBackAddress",
      "type": "event"
    },
    {
      "anonymous": false,
      "inputs": [
        {
          "indexed": false,
          "internalType": "address",
          "name": "_govAddress",
          "type": "address"
        }
      ],
      "name": "SetGov",
      "type": "event"
    },
    {
      "anonymous": false,
      "inputs": [
        {
          "indexed": false,
          "internalType": "address",
          "name": "_marsRouterAddress",
          "type": "address"
        }
      ],
      "name": "SetMarsRouterAddress",
      "type": "event"
    },
    {
      "anonymous": false,
      "inputs": [
        {
          "indexed": false,
          "internalType": "bool",
          "name": "_onlyGov",
          "type": "bool"
        }
      ],
      "name": "SetOnlyGov",
      "type": "event"
    },
    {
      "anonymous": false,
      "inputs": [
        {
          "indexed": false,
          "internalType": "address",
          "name": "_rewardsAddress",
          "type": "address"
        }
      ],
      "name": "SetRewardsAddress",
      "type": "event"
    },
    {
      "anonymous": false,
      "inputs": [
        {
          "indexed": false,
          "internalType": "uint256",
          "name": "_entranceFeeFactor",
          "type": "uint256"
        },
        {
          "indexed": false,
          "internalType": "uint256",
          "name": "_withdrawFeeFactor",
          "type": "uint256"
        },
        {
          "indexed": false,
          "internalType": "uint256",
          "name": "_controllerFee",
          "type": "uint256"
        },
        {
          "indexed": false,
          "internalType": "uint256",
          "name": "_buyBackRate",
          "type": "uint256"
        },
        {
          "indexed": false,
          "internalType": "uint256",
          "name": "_slippageFactor",
          "type": "uint256"
        }
      ],
      "name": "SetSettings",
      "type": "event"
    },
    {
      "anonymous": false,
      "inputs": [
        {
          "indexed": false,
          "internalType": "address",
          "name": "_uniRouterAddress",
          "type": "address"
        }
      ],
      "name": "SetUniRouterAddress",
      "type": "event"
    },
    {
      "anonymous": false,
      "inputs": [
        {
          "indexed": false,
          "internalType": "address",
          "name": "account",
          "type": "address"
        }
      ],
      "name": "Unpaused",
      "type": "event"
    },
    {
      "inputs": [],
      "name": "UPAddress",
      "outputs": [
        {
          "internalType": "address",
          "name": "",
          "type": "address"
        }
      ],
      "stateMutability": "view",
      "type": "function"
    },
    {
      "inputs": [],
      "name": "UPFarmAddress",
      "outputs": [
        {
          "internalType": "address",
          "name": "",
          "type": "address"
        }
      ],
      "stateMutability": "view",
      "type": "function"
    },
    {
      "inputs": [],
      "name": "buyBackAddress",
      "outputs": [
        {
          "internalType": "address",
          "name": "",
          "type": "address"
        }
      ],
      "stateMutability": "view",
      "type": "function"
    },
    {
      "inputs": [],
      "name": "buyBackRate",
      "outputs": [
        {
          "internalType": "uint256",
          "name": "",
          "type": "uint256"
        }
      ],
      "stateMutability": "view",
      "type": "function"
    },
    {
      "inputs": [],
      "name": "buyBackRateMax",
      "outputs": [
        {
          "internalType": "uint256",
          "name": "",
          "type": "uint256"
        }
      ],
      "stateMutability": "view",
      "type": "function"
    },
    {
      "inputs": [],
      "name": "buyBackRateUL",
      "outputs": [
        {
          "internalType": "uint256",
          "name": "",
          "type": "uint256"
        }
      ],
      "stateMutability": "view",
      "type": "function"
    },
    {
      "inputs": [],
      "name": "controllerFee",
      "outputs": [
        {
          "internalType": "uint256",
          "name": "",
          "type": "uint256"
        }
      ],
      "stateMutability": "view",
      "type": "function"
    },
    {
      "inputs": [],
      "name": "controllerFeeMax",
      "outputs": [
        {
          "internalType": "uint256",
          "name": "",
          "type": "uint256"
        }
      ],
      "stateMutability": "view",
      "type": "function"
    },
    {
      "inputs": [],
      "name": "controllerFeeUL",
      "outputs": [
        {
          "internalType": "uint256",
          "name": "",
          "type": "uint256"
        }
      ],
      "stateMutability": "view",
      "type": "function"
    },
    {
      "inputs": [],
      "name": "convertDustToEarned",
      "outputs": [],
      "stateMutability": "nonpayable",
      "type": "function"
    },
    {
      "inputs": [
        {
          "internalType": "uint256",
          "name": "_wantAmt",
          "type": "uint256"
        }
      ],
      "name": "deposit",
      "outputs": [
        {
          "internalType": "uint256",
          "name": "",
          "type": "uint256"
        }
      ],
      "stateMutability": "nonpayable",
      "type": "function"
    },
    {
      "inputs": [],
      "name": "earn",
      "outputs": [],
      "stateMutability": "nonpayable",
      "type": "function"
    },
    {
      "inputs": [],
      "name": "earnedAddress",
      "outputs": [
        {
          "internalType": "address",
          "name": "",
          "type": "address"
        }
      ],
      "stateMutability": "view",
      "type": "function"
    },
    {
      "inputs": [
        {
          "internalType": "uint256",
          "name": "",
          "type": "uint256"
        }
      ],
      "name": "earnedToToken0Path",
      "outputs": [
        {
          "internalType": "address",
          "name": "",
          "type": "address"
        }
      ],
      "stateMutability": "view",
      "type": "function"
    },
    {
      "inputs": [
        {
          "internalType": "uint256",
          "name": "",
          "type": "uint256"
        }
      ],
      "name": "earnedToToken1Path",
      "outputs": [
        {
          "internalType": "address",
          "name": "",
          "type": "address"
        }
      ],
      "stateMutability": "view",
      "type": "function"
    },
    {
      "inputs": [
        {
          "internalType": "uint256",
          "name": "",
          "type": "uint256"
        }
      ],
      "name": "earnedToUpPath",
      "outputs": [
        {
          "internalType": "address",
          "name": "",
          "type": "address"
        }
      ],
      "stateMutability": "view",
      "type": "function"
    },
    {
      "inputs": [
        {
          "internalType": "uint256",
          "name": "",
          "type": "uint256"
        }
      ],
      "name": "earnedToWBNBPath",
      "outputs": [
        {
          "internalType": "address",
          "name": "",
          "type": "address"
        }
      ],
      "stateMutability": "view",
      "type": "function"
    },
    {
      "inputs": [],
      "name": "entranceFeeFactor",
      "outputs": [
        {
          "internalType": "uint256",
          "name": "",
          "type": "uint256"
        }
      ],
      "stateMutability": "view",
      "type": "function"
    },
    {
      "inputs": [],
      "name": "entranceFeeFactorLL",
      "outputs": [
        {
          "internalType": "uint256",
          "name": "",
          "type": "uint256"
        }
      ],
      "stateMutability": "view",
      "type": "function"
    },
    {
      "inputs": [],
      "name": "entranceFeeFactorMax",
      "outputs": [
        {
          "internalType": "uint256",
          "name": "",
          "type": "uint256"
        }
      ],
      "stateMutability": "view",
      "type": "function"
    },
    {
      "inputs": [],
      "name": "farm",
      "outputs": [],
      "stateMutability": "nonpayable",
      "type": "function"
    },
    {
      "inputs": [],
      "name": "farmContractAddress",
      "outputs": [
        {
          "internalType": "address",
          "name": "",
          "type": "address"
        }
      ],
      "stateMutability": "view",
      "type": "function"
    },
    {
      "inputs": [],
      "name": "govAddress",
      "outputs": [
        {
          "internalType": "address",
          "name": "",
          "type": "address"
        }
      ],
      "stateMutability": "view",
      "type": "function"
    },
    {
      "inputs": [
        {
          "internalType": "address",
          "name": "_token",
          "type": "address"
        },
        {
          "internalType": "uint256",
          "name": "_amount",
          "type": "uint256"
        },
        {
          "internalType": "address",
          "name": "_to",
          "type": "address"
        }
      ],
      "name": "inCaseTokensGetStuck",
      "outputs": [],
      "stateMutability": "nonpayable",
      "type": "function"
    },
    {
      "inputs": [],
      "name": "isAutoComp",
      "outputs": [
        {
          "internalType": "bool",
          "name": "",
          "type": "bool"
        }
      ],
      "stateMutability": "view",
      "type": "function"
    },
    {
      "inputs": [],
      "name": "isCAKEStaking",
      "outputs": [
        {
          "internalType": "bool",
          "name": "",
          "type": "bool"
        }
      ],
      "stateMutability": "view",
      "type": "function"
    },
    {
      "inputs": [],
      "name": "isCollect",
      "outputs": [
        {
          "internalType": "bool",
          "name": "",
          "type": "bool"
        }
      ],
      "stateMutability": "view",
      "type": "function"
    },
    {
      "inputs": [],
      "name": "isSameAssetDeposit",
      "outputs": [
        {
          "internalType": "bool",
          "name": "",
          "type": "bool"
        }
      ],
      "stateMutability": "view",
      "type": "function"
    },
    {
      "inputs": [],
      "name": "lastEarnBlock",
      "outputs": [
        {
          "internalType": "uint256",
          "name": "",
          "type": "uint256"
        }
      ],
      "stateMutability": "view",
      "type": "function"
    },
    {
      "inputs": [],
      "name": "marsRouterAddress",
      "outputs": [
        {
          "internalType": "address",
          "name": "",
          "type": "address"
        }
      ],
      "stateMutability": "view",
      "type": "function"
    },
    {
      "inputs": [],
      "name": "onlyGov",
      "outputs": [
        {
          "internalType": "bool",
          "name": "",
          "type": "bool"
        }
      ],
      "stateMutability": "view",
      "type": "function"
    },
    {
      "inputs": [],
      "name": "owner",
      "outputs": [
        {
          "internalType": "address",
          "name": "",
          "type": "address"
        }
      ],
      "stateMutability": "view",
      "type": "function"
    },
    {
      "inputs": [],
      "name": "pause",
      "outputs": [],
      "stateMutability": "nonpayable",
      "type": "function"
    },
    {
      "inputs": [],
      "name": "paused",
      "outputs": [
        {
          "internalType": "bool",
          "name": "",
          "type": "bool"
        }
      ],
      "stateMutability": "view",
      "type": "function"
    },
    {
      "inputs": [],
      "name": "pid",
      "outputs": [
        {
          "internalType": "uint256",
          "name": "",
          "type": "uint256"
        }
      ],
      "stateMutability": "view",
      "type": "function"
    },
    {
      "inputs": [],
      "name": "renounceOwnership",
      "outputs": [],
      "stateMutability": "nonpayable",
      "type": "function"
    },
    {
      "inputs": [],
      "name": "rewardsAddress",
      "outputs": [
        {
          "internalType": "address",
          "name": "",
          "type": "address"
        }
      ],
      "stateMutability": "view",
      "type": "function"
    },
    {
      "inputs": [
        {
          "internalType": "address",
          "name": "_buyBackAddress",
          "type": "address"
        }
      ],
      "name": "setBuyBackAddress",
      "outputs": [],
      "stateMutability": "nonpayable",
      "type": "function"
    },
    {
      "inputs": [
        {
          "internalType": "address",
          "name": "_govAddress",
          "type": "address"
        }
      ],
      "name": "setGov",
      "outputs": [],
      "stateMutability": "nonpayable",
      "type": "function"
    },
    {
      "inputs": [
        {
          "internalType": "address",
          "name": "_marsRouterAddress",
          "type": "address"
        }
      ],
      "name": "setMarsRouterAddress",
      "outputs": [],
      "stateMutability": "nonpayable",
      "type": "function"
    },
    {
      "inputs": [
        {
          "internalType": "bool",
          "name": "_onlyGov",
          "type": "bool"
        }
      ],
      "name": "setOnlyGov",
      "outputs": [],
      "stateMutability": "nonpayable",
      "type": "function"
    },
    {
      "inputs": [
        {
          "internalType": "address",
          "name": "_rewardsAddress",
          "type": "address"
        }
      ],
      "name": "setRewardsAddress",
      "outputs": [],
      "stateMutability": "nonpayable",
      "type": "function"
    },
    {
      "inputs": [
        {
          "internalType": "uint256",
          "name": "_entranceFeeFactor",
          "type": "uint256"
        },
        {
          "internalType": "uint256",
          "name": "_withdrawFeeFactor",
          "type": "uint256"
        },
        {
          "internalType": "uint256",
          "name": "_controllerFee",
          "type": "uint256"
        },
        {
          "internalType": "uint256",
          "name": "_buyBackRate",
          "type": "uint256"
        },
        {
          "internalType": "uint256",
          "name": "_slippageFactor",
          "type": "uint256"
        }
      ],
      "name": "setSettings",
      "outputs": [],
      "stateMutability": "nonpayable",
      "type": "function"
    },
    {
      "inputs": [
        {
          "internalType": "address",
          "name": "_uniRouterAddress",
          "type": "address"
        }
      ],
      "name": "setUniRouterAddress",
      "outputs": [],
      "stateMutability": "nonpayable",
      "type": "function"
    },
    {
      "inputs": [],
      "name": "sharesTotal",
      "outputs": [
        {
          "internalType": "uint256",
          "name": "",
          "type": "uint256"
        }
      ],
      "stateMutability": "view",
      "type": "function"
    },
    {
      "inputs": [],
      "name": "slippageFactor",
      "outputs": [
        {
          "internalType": "uint256",
          "name": "",
          "type": "uint256"
        }
      ],
      "stateMutability": "view",
      "type": "function"
    },
    {
      "inputs": [],
      "name": "slippageFactorUL",
      "outputs": [
        {
          "internalType": "uint256",
          "name": "",
          "type": "uint256"
        }
      ],
      "stateMutability": "view",
      "type": "function"
    },
    {
      "inputs": [],
      "name": "token0Address",
      "outputs": [
        {
          "internalType": "address",
          "name": "",
          "type": "address"
        }
      ],
      "stateMutability": "view",
      "type": "function"
    },
    {
      "inputs": [
        {
          "internalType": "uint256",
          "name": "",
          "type": "uint256"
        }
      ],
      "name": "token0ToEarnedPath",
      "outputs": [
        {
          "internalType": "address",
          "name": "",
          "type": "address"
        }
      ],
      "stateMutability": "view",
      "type": "function"
    },
    {
      "inputs": [],
      "name": "token1Address",
      "outputs": [
        {
          "internalType": "address",
          "name": "",
          "type": "address"
        }
      ],
      "stateMutability": "view",
      "type": "function"
    },
    {
      "inputs": [
        {
          "internalType": "uint256",
          "name": "",
          "type": "uint256"
        }
      ],
      "name": "token1ToEarnedPath",
      "outputs": [
        {
          "internalType": "address",
          "name": "",
          "type": "address"
        }
      ],
      "stateMutability": "view",
      "type": "function"
    },
    {
      "inputs": [
        {
          "internalType": "address",
          "name": "newOwner",
          "type": "address"
        }
      ],
      "name": "transferOwnership",
      "outputs": [],
      "stateMutability": "nonpayable",
      "type": "function"
    },
    {
      "inputs": [],
      "name": "uniRouterAddress",
      "outputs": [
        {
          "internalType": "address",
          "name": "",
          "type": "address"
        }
      ],
      "stateMutability": "view",
      "type": "function"
    },
    {
      "inputs": [],
      "name": "unpause",
      "outputs": [],
      "stateMutability": "nonpayable",
      "type": "function"
    },
    {
      "inputs": [],
      "name": "wantAddress",
      "outputs": [
        {
          "internalType": "address",
          "name": "",
          "type": "address"
        }
      ],
      "stateMutability": "view",
      "type": "function"
    },
    {
      "inputs": [],
      "name": "wantLockedTotal",
      "outputs": [
        {
          "internalType": "uint256",
          "name": "",
          "type": "uint256"
        }
      ],
      "stateMutability": "view",
      "type": "function"
    },
    {
      "inputs": [],
      "name": "wbnbAddress",
      "outputs": [
        {
          "internalType": "address",
          "name": "",
          "type": "address"
        }
      ],
      "stateMutability": "view",
      "type": "function"
    },
    {
      "inputs": [
        {
          "internalType": "uint256",
          "name": "",
          "type": "uint256"
        }
      ],
      "name": "wbnbToXmsPath",
      "outputs": [
        {
          "internalType": "address",
          "name": "",
          "type": "address"
        }
      ],
      "stateMutability": "view",
      "type": "function"
    },
    {
      "inputs": [
        {
          "internalType": "uint256",
          "name": "_wantAmt",
          "type": "uint256"
        }
      ],
      "name": "withdraw",
      "outputs": [
        {
          "internalType": "uint256",
          "name": "",
          "type": "uint256"
        }
      ],
      "stateMutability": "nonpayable",
      "type": "function"
    },
    {
      "inputs": [],
      "name": "withdrawFeeFactor",
      "outputs": [
        {
          "internalType": "uint256",
          "name": "",
          "type": "uint256"
        }
      ],
      "stateMutability": "view",
      "type": "function"
    },
    {
      "inputs": [],
      "name": "withdrawFeeFactorLL",
      "outputs": [
        {
          "internalType": "uint256",
          "name": "",
          "type": "uint256"
        }
      ],
      "stateMutability": "view",
      "type": "function"
    },
    {
      "inputs": [],
      "name": "withdrawFeeFactorMax",
      "outputs": [
        {
          "internalType": "uint256",
          "name": "",
          "type": "uint256"
        }
      ],
      "stateMutability": "view",
      "type": "function"
    },
    {
      "inputs": [],
      "name": "wrapBNB",
      "outputs": [],
      "stateMutability": "nonpayable",
      "type": "function"
    },
    {
      "inputs": [],
      "name": "xmsAddress",
      "outputs": [
        {
          "internalType": "address",
          "name": "",
          "type": "address"
        }
      ],
      "stateMutability": "view",
      "type": "function"
    },
    {
      "stateMutability": "payable",
      "type": "receive"
    }
  ],
  "bytecode": "0x6080604052600c805460ff60a01b191690556000600d819055600e819055600f8190556010819055601155601280546001600160a01b03191661dead1790556127066014556127106015556103b66016553480156200005d57600080fd5b50604051620048283803806200482883398181016040526101808110156200008457600080fd5b8101908080516040519392919084640100000000821115620000a557600080fd5b908301906020820185811115620000bb57600080fd5b8251866020820283011164010000000082111715620000d957600080fd5b82525081516020918201928201910280838360005b8381101562000108578181015183820152602001620000ee565b5050505090500160405260200180519060200190929190805160405193929190846401000000008211156200013c57600080fd5b9083019060208201858111156200015257600080fd5b82518660208202830111640100000000821117156200017057600080fd5b82525081516020918201928201910280838360005b838110156200019f57818101518382015260200162000185565b5050505090500160405260200180516040519392919084640100000000821115620001c957600080fd5b908301906020820185811115620001df57600080fd5b8251866020820283011164010000000082111715620001fd57600080fd5b82525081516020918201928201910280838360005b838110156200022c57818101518382015260200162000212565b50505050905001604052602001805160405193929190846401000000008211156200025657600080fd5b9083019060208201858111156200026c57600080fd5b82518660208202830111640100000000821117156200028a57600080fd5b82525081516020918201928201910280838360005b83811015620002b95781810151838201526020016200029f565b5050505090500160405260200180516040519392919084640100000000821115620002e357600080fd5b908301906020820185811115620002f957600080fd5b82518660208202830111640100000000821117156200031757600080fd5b82525081516020918201928201910280838360005b83811015620003465781810151838201526020016200032c565b50505050905001604052602001805160405193929190846401000000008211156200037057600080fd5b9083019060208201858111156200038657600080fd5b8251866020820283011164010000000082111715620003a457600080fd5b82525081516020918201928201910280838360005b83811015620003d3578181015183820152602001620003b9565b505050509190910160409081526020830151908301516060840151608085015160a09095015192965090945092915060006200040e62000870565b600080546001600160a01b0319166001600160a01b03831690811782556040519293509160008051602062004808833981519152908290a350600180556002805460ff191690558b518c906000906200046357fe5b6020026020010151600960006101000a8154816001600160a01b0302191690836001600160a01b031602179055508b6001815181106200049f57fe5b6020026020010151600c60006101000a8154816001600160a01b0302191690836001600160a01b031602179055508b600281518110620004db57fe5b6020026020010151600a60006101000a8154816001600160a01b0302191690836001600160a01b031602179055508b6003815181106200051757fe5b6020026020010151600b60006101000a8154816001600160a01b0302191690836001600160a01b031602179055508b6004815181106200055357fe5b6020026020010151600460006101000a8154816001600160a01b0302191690836001600160a01b031602179055508b6005815181106200058f57fe5b6020026020010151600560006101000a8154816001600160a01b0302191690836001600160a01b031602179055508b600681518110620005cb57fe5b6020026020010151600660006101000a8154816001600160a01b0302191690836001600160a01b031602179055508b6007815181106200060757fe5b6020026020010151600760006101000a8154816001600160a01b0302191690836001600160a01b031602179055508b6008815181106200064357fe5b6020026020010151600260056101000a8154816001600160a01b0302191690836001600160a01b031602179055508b6009815181106200067f57fe5b6020026020010151600860006101000a8154816001600160a01b0302191690836001600160a01b031602179055508b600a81518110620006bb57fe5b6020026020010151601c60006101000a8154816001600160a01b0302191690836001600160a01b031602179055508b600b81518110620006f757fe5b6020026020010151601360006101000a8154816001600160a01b0302191690836001600160a01b031602179055508b600c815181106200073357fe5b6020026020010151601260006101000a8154816001600160a01b0302191690836001600160a01b031602179055508b600d815181106200076f57fe5b602090810291909101810151601f80546001600160a01b0319166001600160a01b0390921691909117905560038c905560028054630100000063ff000000199091161760ff60201b19166401000000008415150217905560118590558a51620007df91601d91908d01906200098d565b508851620007f59060179060208c01906200098d565b5087516200080b9060189060208b01906200098d565b508651620008219060199060208a01906200098d565b5085516200083790601e9060208901906200098d565b50601085905560148390556015829055600a546200085e906001600160a01b031662000874565b50505050505050505050505062000a18565b3390565b6200087e62000870565b6001600160a01b0316620008916200097e565b6001600160a01b031614620008ed576040805162461bcd60e51b815260206004820181905260248201527f4f776e61626c653a2063616c6c6572206973206e6f7420746865206f776e6572604482015290519081900360640190fd5b6001600160a01b038116620009345760405162461bcd60e51b8152600401808060200182810382526026815260200180620047e26026913960400191505060405180910390fd5b600080546040516001600160a01b03808516939216916000805160206200480883398151915291a3600080546001600160a01b0319166001600160a01b0392909216919091179055565b6000546001600160a01b031690565b828054828255906000526020600020908101928215620009e5579160200282015b82811115620009e557825182546001600160a01b0319166001600160a01b03909116178255602090920191600190910190620009ae565b50620009f3929150620009f7565b5090565b5b80821115620009f35780546001600160a01b0319168155600101620009f8565b613dba8062000a286000396000f3fe6080604052600436106103c65760003560e01c8063846d9e17116101f2578063c11c2e921161010d578063db22e43a116100a0578063ee50dc341161006f578063ee50dc34146104d5578063f106845414610a88578063f2fde38b14610a9d578063ffbd3b1f14610ad0576103cd565b8063db22e43a14610a34578063e5dd455a14610a49578063e719847414610a5e578063e7a0367914610a73576103cd565b8063cfad57a2116100dc578063cfad57a2146109c2578063d389800f146109f5578063d5b0916314610a0a578063d7cb416f14610a1f576103cd565b8063c11c2e9214610950578063c302a4d0146107af578063c8e3d18b14610965578063cf6d020b1461098f576103cd565b80639a24664311610185578063b6b55f2511610154578063b6b55f25146108d2578063b74cd242146108fc578063b77050e714610911578063c0973eed1461093b576103cd565b80639a246643146108605780639fc33a9f14610875578063ad740f8c1461088a578063b3545c01146108bd576103cd565b80638906758d116101c15780638906758d146107c45780638da5cb5b146107f7578063904a32f41461080c57806396e9aff814610836576103cd565b8063846d9e171461074357806384fa32ac1461075857806385f02dd61461079a578063866b2018146107af576103cd565b806344a3955e116102e257806367206d4011610275578063783478ad11610244578063783478ad146106da5780637fabcc94146106ef5780637ff36fbe146107195780638456cb591461072e576103cd565b806367206d401461065857806368f541621461069b578063693a090b146106b0578063715018a6146106c5576103cd565b80635d82e33a116102b15780635d82e33a146105e65780635da79d631461061057806363fe3e3a1461064357806367057b6c146104d5576103cd565b806344a3955e146105a757806346008a07146105bc5780634d9f7bb2146104d55780635c975abb146105d1576103cd565b80632b3c905f1161035a578063380eec2f11610329578063380eec2f14610553578063382c05ad146105685780633f4ba83a1461057d57806342da4eb314610592576103cd565b80632b3c905f146104ea5780632e1a7d4d146104ff57806335c7f1211461052957806336e9332d1461053e576103cd565b80630fa4e01e116103965780630fa4e01e146104965780631334903f146104ab578063178a8d07146104c05780632717eff3146104d5576103cd565b80627a2ae3146103d2578063061c7d48146104185780630b6bb30b1461043f5780630daef3211461046d576103cd565b366103cd57005b600080fd5b3480156103de57600080fd5b506103fc600480360360208110156103f557600080fd5b5035610ae5565b604080516001600160a01b039092168252519081900360200190f35b34801561042457600080fd5b5061042d610b0c565b60408051918252519081900360200190f35b34801561044b57600080fd5b5061046b6004803603602081101561046257600080fd5b50351515610b12565b005b34801561047957600080fd5b50610482610bf2565b604080519115158252519081900360200190f35b3480156104a257600080fd5b5061042d610c13565b3480156104b757600080fd5b5061042d610c19565b3480156104cc57600080fd5b5061042d610c1f565b3480156104e157600080fd5b5061042d610c25565b3480156104f657600080fd5b506103fc610c2b565b34801561050b57600080fd5b5061042d6004803603602081101561052257600080fd5b5035610c3a565b34801561053557600080fd5b506103fc610ed3565b34801561054a57600080fd5b5061046b610ee2565b34801561055f57600080fd5b506103fc610f4d565b34801561057457600080fd5b506103fc610f5c565b34801561058957600080fd5b5061046b610f6b565b34801561059e57600080fd5b5061042d610fd6565b3480156105b357600080fd5b5061042d610fdc565b3480156105c857600080fd5b506103fc610fe2565b3480156105dd57600080fd5b50610482610ff1565b3480156105f257600080fd5b506103fc6004803603602081101561060957600080fd5b5035610ffa565b34801561061c57600080fd5b5061046b6004803603602081101561063357600080fd5b50356001600160a01b0316611007565b34801561064f57600080fd5b506103fc6110d4565b34801561066457600080fd5b5061046b6004803603606081101561067b57600080fd5b506001600160a01b038135811691602081013591604090910135166110e3565b3480156106a757600080fd5b5061042d611223565b3480156106bc57600080fd5b506103fc611229565b3480156106d157600080fd5b5061046b611238565b3480156106e657600080fd5b506103fc61130e565b3480156106fb57600080fd5b506103fc6004803603602081101561071257600080fd5b503561131d565b34801561072557600080fd5b506103fc61132a565b34801561073a57600080fd5b5061046b611339565b34801561074f57600080fd5b506104826113a2565b34801561076457600080fd5b5061046b600480360360a081101561077b57600080fd5b50803590602081013590604081013590606081013590608001356113b0565b3480156107a657600080fd5b5061042d6116e0565b3480156107bb57600080fd5b5061042d6116e6565b3480156107d057600080fd5b5061046b600480360360208110156107e757600080fd5b50356001600160a01b03166116ec565b34801561080357600080fd5b506103fc6117b9565b34801561081857600080fd5b506103fc6004803603602081101561082f57600080fd5b50356117c8565b34801561084257600080fd5b506103fc6004803603602081101561085957600080fd5b50356117d5565b34801561086c57600080fd5b506104826117e2565b34801561088157600080fd5b506103fc6117f1565b34801561089657600080fd5b5061046b600480360360208110156108ad57600080fd5b50356001600160a01b0316611809565b3480156108c957600080fd5b5061042d6118d6565b3480156108de57600080fd5b5061042d600480360360208110156108f557600080fd5b50356118dc565b34801561090857600080fd5b5061042d611ab5565b34801561091d57600080fd5b506103fc6004803603602081101561093457600080fd5b5035611abb565b34801561094757600080fd5b506103fc611ac8565b34801561095c57600080fd5b5061046b611ad7565b34801561097157600080fd5b506103fc6004803603602081101561098857600080fd5b5035611ebb565b34801561099b57600080fd5b5061046b600480360360208110156109b257600080fd5b50356001600160a01b0316611ec8565b3480156109ce57600080fd5b5061046b600480360360208110156109e557600080fd5b50356001600160a01b0316611f95565b348015610a0157600080fd5b5061046b612062565b348015610a1657600080fd5b5061046b612879565b348015610a2b57600080fd5b506103fc6128e2565b348015610a4057600080fd5b506104826128f1565b348015610a5557600080fd5b50610482612902565b348015610a6a57600080fd5b506103fc612912565b348015610a7f57600080fd5b506103fc612921565b348015610a9457600080fd5b5061042d612930565b348015610aa957600080fd5b5061046b60048036036020811015610ac057600080fd5b50356001600160a01b0316612936565b348015610adc57600080fd5b5061042d612a62565b601b8181548110610af257fe5b6000918252602090912001546001600160a01b0316905081565b61012c81565b600c546001600160a01b03163314610b73576040805162461bcd60e51b8152602060048083019190915260248201527f21676f7600000000000000000000000000000000000000000000000000000000604482015290519081900360640190fd5b600c80548215157401000000000000000000000000000000000000000081027fffffffffffffffffffffff00ffffffffffffffffffffffffffffffffffffffff9092169190911790915560408051918252517f125177ac7b8930dac1e59c2b30b1b6b9191b30af40cf6bbb5d20fec4d44be60f9181900360200190a150565b600c5474010000000000000000000000000000000000000000900460ff1681565b600d5481565b60145481565b60115481565b61271081565b601c546001600160a01b031681565b6000610c44612a68565b6001600160a01b0316610c556117b9565b6001600160a01b031614610cb0576040805162461bcd60e51b815260206004820181905260248201527f4f776e61626c653a2063616c6c6572206973206e6f7420746865206f776e6572604482015290519081900360640190fd5b60026001541415610d08576040805162461bcd60e51b815260206004820152601f60248201527f5265656e7472616e637947756172643a207265656e7472616e742063616c6c00604482015290519081900360640190fd5b600260015581610d5f576040805162461bcd60e51b815260206004820152600d60248201527f5f77616e74416d74203c3d203000000000000000000000000000000000000000604482015290519081900360640190fd5b6000610d82600e54610d7c600f5486612a6c90919063ffffffff16565b90612ace565b9050600f54811115610d935750600f545b600f54610da09082612b35565b600f556015546127101115610dcd57610dca612710610d7c60155486612a6c90919063ffffffff16565b92505b6002546301000000900460ff1615610de857610de883612b92565b60048054604080517f70a082310000000000000000000000000000000000000000000000000000000081523093810193909352516000926001600160a01b03909216916370a08231916024808301926020929190829003018186803b158015610e5057600080fd5b505afa158015610e64573d6000803e3d6000fd5b505050506040513d6020811015610e7a57600080fd5b5051905080841115610e8a578093505b83600e541015610e9a57600e5493505b600e54610ea79085612b35565b600e55610ec8610eb56117b9565b6004546001600160a01b03169086612c12565b506001805592915050565b600a546001600160a01b031681565b60026001541415610f3a576040805162461bcd60e51b815260206004820152601f60248201527f5265656e7472616e637947756172643a207265656e7472616e742063616c6c00604482015290519081900360640190fd5b6002600155610f47612c92565b60018055565b600b546001600160a01b031681565b601f546001600160a01b031681565b600c546001600160a01b03163314610fcc576040805162461bcd60e51b8152602060048083019190915260248201527f21676f7600000000000000000000000000000000000000000000000000000000604482015290519081900360640190fd5b610fd4612e23565b565b600e5481565b600f5481565b600c546001600160a01b031681565b60025460ff1690565b601d8181548110610af257fe5b600c546001600160a01b03163314611068576040805162461bcd60e51b8152602060048083019190915260248201527f21676f7600000000000000000000000000000000000000000000000000000000604482015290519081900360640190fd5b600880546001600160a01b0383167fffffffffffffffffffffffff0000000000000000000000000000000000000000909116811790915560408051918252517f384f1dcb79da4071839c471d7c81884a43fb946a527f3661fdee5904adc8f6579181900360200190a150565b6009546001600160a01b031681565b600c546001600160a01b03163314611144576040805162461bcd60e51b8152602060048083019190915260248201527f21676f7600000000000000000000000000000000000000000000000000000000604482015290519081900360640190fd5b6007546001600160a01b03848116911614156111a7576040805162461bcd60e51b815260206004820152600560248201527f2173616665000000000000000000000000000000000000000000000000000000604482015290519081900360640190fd5b6004546001600160a01b038481169116141561120a576040805162461bcd60e51b815260206004820152600560248201527f2173616665000000000000000000000000000000000000000000000000000000604482015290519081900360640190fd5b61121e6001600160a01b0384168284612c12565b505050565b60155481565b6008546001600160a01b031681565b611240612a68565b6001600160a01b03166112516117b9565b6001600160a01b0316146112ac576040805162461bcd60e51b815260206004820181905260248201527f4f776e61626c653a2063616c6c6572206973206e6f7420746865206f776e6572604482015290519081900360640190fd5b600080546040516001600160a01b03909116907f8be0079c531659141344cd1fd0a4f28419497f9722a3daafe3b4186f6b6457e0908390a3600080547fffffffffffffffffffffffff0000000000000000000000000000000000000000169055565b6012546001600160a01b031681565b601e8181548110610af257fe5b6005546001600160a01b031681565b600c546001600160a01b0316331461139a576040805162461bcd60e51b8152602060048083019190915260248201527f21676f7600000000000000000000000000000000000000000000000000000000604482015290519081900360640190fd5b610fd4612eea565b600254610100900460ff1681565b600c546001600160a01b03163314611411576040805162461bcd60e51b8152602060048083019190915260248201527f21676f7600000000000000000000000000000000000000000000000000000000604482015290519081900360640190fd5b6126de851015611468576040805162461bcd60e51b815260206004820152601a60248201527f5f656e7472616e6365466565466163746f7220746f6f206c6f77000000000000604482015290519081900360640190fd5b6127108511156114bf576040805162461bcd60e51b815260206004820152601b60248201527f5f656e7472616e6365466565466163746f7220746f6f20686967680000000000604482015290519081900360640190fd5b60148590556126de84101561151b576040805162461bcd60e51b815260206004820152601a60248201527f5f7769746864726177466565466163746f7220746f6f206c6f77000000000000604482015290519081900360640190fd5b612710841115611572576040805162461bcd60e51b815260206004820152601b60248201527f5f7769746864726177466565466163746f7220746f6f20686967680000000000604482015290519081900360640190fd5b601584905561012c8311156115ce576040805162461bcd60e51b815260206004820152601760248201527f5f636f6e74726f6c6c657246656520746f6f2068696768000000000000000000604482015290519081900360640190fd5b601083905561032082111561162a576040805162461bcd60e51b815260206004820152601560248201527f5f6275794261636b5261746520746f6f20686967680000000000000000000000604482015290519081900360640190fd5b60118290556103e3811115611686576040805162461bcd60e51b815260206004820152601860248201527f5f736c697070616765466163746f7220746f6f20686967680000000000000000604482015290519081900360640190fd5b60168190556040805186815260208101869052808201859052606081018490526080810183905290517fc67e0b149a57a70fa44a531a46c2c6d8e0b242fa12f459f250012c3a5987d29a9181900360a00190a15050505050565b60105481565b6126de81565b600c546001600160a01b0316331461174d576040805162461bcd60e51b8152602060048083019190915260248201527f21676f7600000000000000000000000000000000000000000000000000000000604482015290519081900360640190fd5b601380546001600160a01b0383167fffffffffffffffffffffffff0000000000000000000000000000000000000000909116811790915560408051918252517fa69f1931be99336e049905baa11d21ed44204d7686e46b4344404d80d47c29889181900360200190a150565b6000546001600160a01b031690565b60178181548110610af257fe5b60198181548110610af257fe5b60025462010000900460ff1681565b6002546501000000000090046001600160a01b031681565b600c546001600160a01b0316331461186a576040805162461bcd60e51b8152602060048083019190915260248201527f21676f7600000000000000000000000000000000000000000000000000000000604482015290519081900360640190fd5b601280546001600160a01b0383167fffffffffffffffffffffffff0000000000000000000000000000000000000000909116811790915560408051918252517f200c92aaea275302bf641e37f7a5dda63f445f08f4fc74a5cde7fd643f609e099181900360200190a150565b61032081565b60006118e6612a68565b6001600160a01b03166118f76117b9565b6001600160a01b031614611952576040805162461bcd60e51b815260206004820181905260248201527f4f776e61626c653a2063616c6c6572206973206e6f7420746865206f776e6572604482015290519081900360640190fd5b600260015414156119aa576040805162461bcd60e51b815260206004820152601f60248201527f5265656e7472616e637947756172643a207265656e7472616e742063616c6c00604482015290519081900360640190fd5b60026001556119b7610ff1565b15611a09576040805162461bcd60e51b815260206004820152601060248201527f5061757361626c653a2070617573656400000000000000000000000000000000604482015290519081900360640190fd5b600454611a21906001600160a01b0316333085612f98565b600e54829015801590611a3657506000600f54115b15611a6b57611a68612710610d7c600e54610d7c601454611a62600f548a612a6c90919063ffffffff16565b90612a6c565b90505b600f54611a789082613026565b600f556002546301000000900460ff1615611a9a57611a95612c92565b611aab565b600e54611aa79084613026565b600e555b6001805592915050565b6103e381565b601a8181548110610af257fe5b6013546001600160a01b031681565b611adf610ff1565b15611b31576040805162461bcd60e51b815260206004820152601060248201527f5061757361626c653a2070617573656400000000000000000000000000000000604482015290519081900360640190fd5b6002546301000000900460ff16611b8f576040805162461bcd60e51b815260206004820152600b60248201527f2169734175746f436f6d70000000000000000000000000000000000000000000604482015290519081900360640190fd5b600254610100900460ff1615611bec576040805162461bcd60e51b815260206004820152600d60248201527f697343414b455374616b696e6700000000000000000000000000000000000000604482015290519081900360640190fd5b600554604080517f70a0823100000000000000000000000000000000000000000000000000000000815230600482015290516000926001600160a01b0316916370a08231916024808301926020929190829003018186803b158015611c5057600080fd5b505afa158015611c64573d6000803e3d6000fd5b505050506040513d6020811015611c7a57600080fd5b50516007546005549192506001600160a01b03918216911614801590611ca05750600081115b15611d5557600854600554611cc2916001600160a01b03918216911683613080565b611d55600860009054906101000a90046001600160a01b031682601654601a805480602002602001604051908101604052809291908181526020018280548015611d3557602002820191906000526020600020905b81546001600160a01b03168152600190910190602001808311611d17575b505050505030611d506102584261302690919063ffffffff16565b613199565b600654604080517f70a0823100000000000000000000000000000000000000000000000000000000815230600482015290516000926001600160a01b0316916370a08231916024808301926020929190829003018186803b158015611db957600080fd5b505afa158015611dcd573d6000803e3d6000fd5b505050506040513d6020811015611de357600080fd5b50516007546006549192506001600160a01b03918216911614801590611e095750600081115b15611eb757600854600654611e2b916001600160a01b03918216911683613080565b611eb7600860009054906101000a90046001600160a01b031682601654601b805480602002602001604051908101604052809291908181526020018280548015611d35576020028201919060005260206000209081546001600160a01b03168152600190910190602001808311611d1757505050505030611d506102584261302690919063ffffffff16565b5050565b60188181548110610af257fe5b600c546001600160a01b03163314611f29576040805162461bcd60e51b8152602060048083019190915260248201527f21676f7600000000000000000000000000000000000000000000000000000000604482015290519081900360640190fd5b601c80546001600160a01b0383167fffffffffffffffffffffffff0000000000000000000000000000000000000000909116811790915560408051918252517f59309d08ddd0e2f3624bc68ed5ef8c68035c100a1db4e3a70b2c1910b55c93e29181900360200190a150565b600c546001600160a01b03163314611ff6576040805162461bcd60e51b8152602060048083019190915260248201527f21676f7600000000000000000000000000000000000000000000000000000000604482015290519081900360640190fd5b600c80546001600160a01b0383167fffffffffffffffffffffffff0000000000000000000000000000000000000000909116811790915560408051918252517f91a8c1cc2d4a3bb60738481947a00cbb9899c822916694cf8bb1d68172fdcd549181900360200190a150565b600260015414156120ba576040805162461bcd60e51b815260206004820152601f60248201527f5265656e7472616e637947756172643a207265656e7472616e742063616c6c00604482015290519081900360640190fd5b60026001556120c7610ff1565b15612119576040805162461bcd60e51b815260206004820152601060248201527f5061757361626c653a2070617573656400000000000000000000000000000000604482015290519081900360640190fd5b6002546301000000900460ff16612177576040805162461bcd60e51b815260206004820152600b60248201527f2169734175746f436f6d70000000000000000000000000000000000000000000604482015290519081900360640190fd5b600c5474010000000000000000000000000000000000000000900460ff16156121fb57600c546001600160a01b031633146121fb576040805162461bcd60e51b8152602060048083019190915260248201527f21676f7600000000000000000000000000000000000000000000000000000000604482015290519081900360640190fd5b61220361343a565b600254640100000000900460ff16156122275761221e613444565b43600d55610f47565b6009546007546001600160a01b039081169116141561224857612248613535565b600754604080517f70a0823100000000000000000000000000000000000000000000000000000000815230600482015290516000926001600160a01b0316916370a08231916024808301926020929190829003018186803b1580156122ac57600080fd5b505afa1580156122c0573d6000803e3d6000fd5b505050506040513d60208110156122d657600080fd5b505190506122e3816135a8565b90506122ee8161369e565b601f546005549192506001600160a01b0391821691161480156123215750601f546006546001600160a01b039081169116145b15612488576009546007546001600160a01b0390811691161461247a5760085460075461235b916001600160a01b03918216911683613080565b6123e7600860009054906101000a90046001600160a01b031682601654601d805480602002602001604051908101604052809291908181526020018280548015611d35576020028201919060005260206000209081546001600160a01b03168152600190910190602001808311611d1757505050505030611d506102584261302690919063ffffffff16565b600954604080517f70a0823100000000000000000000000000000000000000000000000000000000815230600482015290516001600160a01b03909216916370a0823191602480820192602092909190829003018186803b15801561244b57600080fd5b505afa15801561245f573d6000803e3d6000fd5b505050506040513d602081101561247557600080fd5b505190505b612483816137cc565b612866565b601c546007546124a6916001600160a01b0391821691166000613875565b601c546007546124c3916001600160a01b03918216911683613080565b6005546007546001600160a01b0390811691161461256857601c54612568906001600160a01b03166124f6836002612ace565b6016546018805480602002602001604051908101604052809291908181526020018280548015611d35576020028201919060005260206000209081546001600160a01b03168152600190910190602001808311611d1757505050505030611d506102584261302690919063ffffffff16565b6006546007546001600160a01b0390811691161461260d57601c5461260d906001600160a01b031661259b836002612ace565b6016546019805480602002602001604051908101604052809291908181526020018280548015611d35576020028201919060005260206000209081546001600160a01b03168152600190910190602001808311611d1757505050505030611d506102584261302690919063ffffffff16565b600554604080517f70a0823100000000000000000000000000000000000000000000000000000000815230600482015290516000926001600160a01b0316916370a08231916024808301926020929190829003018186803b15801561267157600080fd5b505afa158015612685573d6000803e3d6000fd5b505050506040513d602081101561269b57600080fd5b5051600654604080517f70a0823100000000000000000000000000000000000000000000000000000000815230600482015290519293506000926001600160a01b03909216916370a0823191602480820192602092909190829003018186803b15801561270757600080fd5b505afa15801561271b573d6000803e3d6000fd5b505050506040513d602081101561273157600080fd5b5051905081158015906127445750600081115b1561286357601c54600554612766916001600160a01b03918216911684613080565b601c54600654612783916001600160a01b03918216911683613080565b601c546005546006546001600160a01b039283169263e8e3370092811691168585600080306127b442610258613026565b6040518963ffffffff1660e01b815260040180896001600160a01b03168152602001886001600160a01b03168152602001878152602001868152602001858152602001848152602001836001600160a01b0316815260200182815260200198505050505050505050606060405180830381600087803b15801561283657600080fd5b505af115801561284a573d6000803e3d6000fd5b505050506040513d606081101561286057600080fd5b50505b50505b43600d55612872612c92565b5060018055565b600c546001600160a01b031633146128da576040805162461bcd60e51b8152602060048083019190915260248201527f21676f7600000000000000000000000000000000000000000000000000000000604482015290519081900360640190fd5b610fd4613535565b6006546001600160a01b031681565b600254640100000000900460ff1681565b6002546301000000900460ff1681565b6007546001600160a01b031681565b6004546001600160a01b031681565b60035481565b61293e612a68565b6001600160a01b031661294f6117b9565b6001600160a01b0316146129aa576040805162461bcd60e51b815260206004820181905260248201527f4f776e61626c653a2063616c6c6572206973206e6f7420746865206f776e6572604482015290519081900360640190fd5b6001600160a01b0381166129ef5760405162461bcd60e51b8152600401808060200182810382526026815260200180613cb86026913960400191505060405180910390fd5b600080546040516001600160a01b03808516939216917f8be0079c531659141344cd1fd0a4f28419497f9722a3daafe3b4186f6b6457e091a3600080547fffffffffffffffffffffffff0000000000000000000000000000000000000000166001600160a01b0392909216919091179055565b60165481565b3390565b600082612a7b57506000612ac8565b82820282848281612a8857fe5b0414612ac55760405162461bcd60e51b8152600401808060200182810382526021815260200180613d046021913960400191505060405180910390fd5b90505b92915050565b6000808211612b24576040805162461bcd60e51b815260206004820152601a60248201527f536166654d6174683a206469766973696f6e206279207a65726f000000000000604482015290519081900360640190fd5b818381612b2d57fe5b049392505050565b600082821115612b8c576040805162461bcd60e51b815260206004820152601e60248201527f536166654d6174683a207375627472616374696f6e206f766572666c6f770000604482015290519081900360640190fd5b50900390565b600260059054906101000a90046001600160a01b03166001600160a01b031663441a3e70600354836040518363ffffffff1660e01b81526004018083815260200182815260200192505050600060405180830381600087803b158015612bf757600080fd5b505af1158015612c0b573d6000803e3d6000fd5b5050505050565b604080516001600160a01b038416602482015260448082018490528251808303909101815260649091019091526020810180517bffffffffffffffffffffffffffffffffffffffffffffffffffffffff167fa9059cbb0000000000000000000000000000000000000000000000000000000017905261121e9084906139cb565b6002546301000000900460ff16612cf0576040805162461bcd60e51b815260206004820152600b60248201527f2169734175746f436f6d70000000000000000000000000000000000000000000604482015290519081900360640190fd5b60048054604080517f70a082310000000000000000000000000000000000000000000000000000000081523093810193909352516000926001600160a01b03909216916370a08231916024808301926020929190829003018186803b158015612d5857600080fd5b505afa158015612d6c573d6000803e3d6000fd5b505050506040513d6020811015612d8257600080fd5b5051600e54909150612d949082613026565b600e55600254600454612dbe916001600160a01b0391821691650100000000009091041683613080565b600260059054906101000a90046001600160a01b03166001600160a01b031663e2bbb158600354836040518363ffffffff1660e01b81526004018083815260200182815260200192505050600060405180830381600087803b158015612bf757600080fd5b612e2b610ff1565b612e7c576040805162461bcd60e51b815260206004820152601460248201527f5061757361626c653a206e6f7420706175736564000000000000000000000000604482015290519081900360640190fd5b600280547fffffffffffffffffffffffffffffffffffffffffffffffffffffffffffffff001690557f5db9ee0a495bf2e6ff9c91a7834c1ba4fdd244a5e8aa4e537bd38aeae4b073aa612ecd612a68565b604080516001600160a01b039092168252519081900360200190a1565b612ef2610ff1565b15612f44576040805162461bcd60e51b815260206004820152601060248201527f5061757361626c653a2070617573656400000000000000000000000000000000604482015290519081900360640190fd5b600280547fffffffffffffffffffffffffffffffffffffffffffffffffffffffffffffff001660011790557f62e78cea01bee320cd4e420270b5ea74000d11b0c9f74754ebdbfc544b05a258612ecd612a68565b604080516001600160a01b0380861660248301528416604482015260648082018490528251808303909101815260849091019091526020810180517bffffffffffffffffffffffffffffffffffffffffffffffffffffffff167f23b872dd000000000000000000000000000000000000000000000000000000001790526130209085906139cb565b50505050565b600082820183811015612ac5576040805162461bcd60e51b815260206004820152601b60248201527f536166654d6174683a206164646974696f6e206f766572666c6f770000000000604482015290519081900360640190fd5b600061311682856001600160a01b031663dd62ed3e30876040518363ffffffff1660e01b815260040180836001600160a01b03168152602001826001600160a01b031681526020019250505060206040518083038186803b1580156130e457600080fd5b505afa1580156130f8573d6000803e3d6000fd5b505050506040513d602081101561310e57600080fd5b505190613026565b604080516001600160a01b038616602482015260448082018490528251808303909101815260649091019091526020810180517bffffffffffffffffffffffffffffffffffffffffffffffffffffffff167f095ea7b3000000000000000000000000000000000000000000000000000000001790529091506130209085906139cb565b604080517fd06ca61f00000000000000000000000000000000000000000000000000000000815260048101878152602482019283528551604483015285516060936001600160a01b038b169363d06ca61f938b938a939192606401906020808601910280838360005b8381101561321a578181015183820152602001613202565b50505050905001935050505060006040518083038186803b15801561323e57600080fd5b505afa158015613252573d6000803e3d6000fd5b505050506040513d6000823e601f3d9081017fffffffffffffffffffffffffffffffffffffffffffffffffffffffffffffffe0168201604052602081101561329957600080fd5b81019080805160405193929190846401000000008211156132b957600080fd5b9083019060208201858111156132ce57600080fd5b82518660208202830111640100000000821117156132eb57600080fd5b82525081516020918201928201910280838360005b83811015613318578181015183820152602001613300565b50505050905001604052505050905060008161333f60018451612b3590919063ffffffff16565b8151811061334957fe5b60200260200101519050876001600160a01b0316635c11d7958861337c6103e8610d7c8b87612a6c90919063ffffffff16565b8888886040518663ffffffff1660e01b81526004018086815260200185815260200180602001846001600160a01b03168152602001838152602001828103825285818151815260200191508051906020019060200280838360005b838110156133ef5781810151838201526020016133d7565b505050509050019650505050505050600060405180830381600087803b15801561341857600080fd5b505af115801561342c573d6000803e3d6000fd5b505050505050505050505050565b610fd46000612b92565b6009546007546001600160a01b039081169116141561346557613465613535565b600754604080517f70a0823100000000000000000000000000000000000000000000000000000000815230600482015290516000926001600160a01b0316916370a08231916024808301926020929190829003018186803b1580156134c957600080fd5b505afa1580156134dd573d6000803e3d6000fd5b505050506040513d60208110156134f357600080fd5b50519050801580159061351057506013546001600160a01b031615155b1561353257601354600754613532916001600160a01b03918216911683612c12565b50565b47801561353257600960009054906101000a90046001600160a01b03166001600160a01b031663d0e30db0826040518263ffffffff1660e01b81526004016000604051808303818588803b15801561358c57600080fd5b505af11580156135a0573d6000803e3d6000fd5b505050505050565b6000811561369657601054156136965760006135d5612710610d7c60105486612a6c90919063ffffffff16565b6008546007549192506135f5916001600160a01b03908116911683613080565b613688600860009054906101000a90046001600160a01b031682601654601d80548060200260200160405190810160405280929190818152602001828054801561366857602002820191906000526020600020905b81546001600160a01b0316815260019091019060200180831161364a575b50506013546001600160a01b03169250611d509150429050610258613026565b6136928382612b35565b9250505b50805b919050565b600080601154116136b0575080613699565b60006136cd612710610d7c60115486612a6c90919063ffffffff16565b600b546007549192506001600160a01b039182169116141561370b57601254600754613706916001600160a01b03918216911683612c12565b6137bb565b600854600754613728916001600160a01b03918216911683613080565b6137bb600860009054906101000a90046001600160a01b031682601654601780548060200260200160405190810160405280929190818152602001828054801561379b57602002820191906000526020600020905b81546001600160a01b0316815260019091019060200180831161377d575b50506012546001600160a01b03169250611d509150429050610258613026565b6137c58382612b35565b9392505050565b601c546009546137e9916001600160a01b03918216911683613080565b613532601c60009054906101000a90046001600160a01b031682601654601e805480602002602001604051908101604052809291908181526020018280548015611d35576020028201919060005260206000209081546001600160a01b03168152600190910190602001808311611d1757505050505030611d506102584261302690919063ffffffff16565b8015806139145750604080517fdd62ed3e0000000000000000000000000000000000000000000000000000000081523060048201526001600160a01b03848116602483015291519185169163dd62ed3e91604480820192602092909190829003018186803b1580156138e657600080fd5b505afa1580156138fa573d6000803e3d6000fd5b505050506040513d602081101561391057600080fd5b5051155b61394f5760405162461bcd60e51b8152600401808060200182810382526036815260200180613d4f6036913960400191505060405180910390fd5b604080516001600160a01b038416602482015260448082018490528251808303909101815260649091019091526020810180517bffffffffffffffffffffffffffffffffffffffffffffffffffffffff167f095ea7b30000000000000000000000000000000000000000000000000000000017905261121e9084905b6060613a20826040518060400160405280602081526020017f5361666545524332303a206c6f772d6c6576656c2063616c6c206661696c6564815250856001600160a01b0316613a7c9092919063ffffffff16565b80519091501561121e57808060200190516020811015613a3f57600080fd5b505161121e5760405162461bcd60e51b815260040180806020018281038252602a815260200180613d25602a913960400191505060405180910390fd5b6060613a8b8484600085613a93565b949350505050565b606082471015613ad45760405162461bcd60e51b8152600401808060200182810382526026815260200180613cde6026913960400191505060405180910390fd5b613add85613c0d565b613b2e576040805162461bcd60e51b815260206004820152601d60248201527f416464726573733a2063616c6c20746f206e6f6e2d636f6e7472616374000000604482015290519081900360640190fd5b60006060866001600160a01b031685876040518082805190602001908083835b60208310613b8b57805182527fffffffffffffffffffffffffffffffffffffffffffffffffffffffffffffffe09092019160209182019101613b4e565b6001836020036101000a03801982511681845116808217855250505050505090500191505060006040518083038185875af1925050503d8060008114613bed576040519150601f19603f3d011682016040523d82523d6000602084013e613bf2565b606091505b5091509150613c02828286613c13565b979650505050505050565b3b151590565b60608315613c225750816137c5565b825115613c325782518084602001fd5b8160405162461bcd60e51b81526004018080602001828103825283818151815260200191508051906020019080838360005b83811015613c7c578181015183820152602001613c64565b50505050905090810190601f168015613ca95780820380516001836020036101000a031916815260200191505b509250505060405180910390fdfe4f776e61626c653a206e6577206f776e657220697320746865207a65726f2061646472657373416464726573733a20696e73756666696369656e742062616c616e636520666f722063616c6c536166654d6174683a206d756c7469706c69636174696f6e206f766572666c6f775361666545524332303a204552433230206f7065726174696f6e20646964206e6f7420737563636565645361666545524332303a20617070726f76652066726f6d206e6f6e2d7a65726f20746f206e6f6e2d7a65726f20616c6c6f77616e6365a264697066735822122087d1af85f9ae0309ed4aa636dc039f4c0569de3559b474620d6a451be9e91ee264736f6c634300060c00334f776e61626c653a206e6577206f776e657220697320746865207a65726f20616464726573738be0079c531659141344cd1fd0a4f28419497f9722a3daafe3b4186f6b6457e0",
  "linkReferences": {},
  "deployedLinkReferences": {}
}