{
  "_format": "hh-sol-artifact-1",
  "contractName": "UpFarm",
  "sourceName": "contracts/UpFarm.sol",
  "abi": [
    {
      "inputs": [
        {
          "internalType": "address",
          "name": "_upAddress",
          "type": "address"
        },
        {
          "internalType": "address",
          "name": "_vestingMaster",
          "type": "address"
        },
        {
          "internalType": "uint256",
          "name": "_upPerBlock",
          "type": "uint256"
        },
        {
          "internalType": "uint256",
          "name": "_startBlock",
          "type": "uint256"
        }
      ],
      "stateMutability": "nonpayable",
      "type": "constructor"
    },
    {
      "anonymous": false,
      "inputs": [
        {
          "indexed": true,
          "internalType": "address",
          "name": "user",
          "type": "address"
        },
        {
          "indexed": true,
          "internalType": "uint256",
          "name": "pid",
          "type": "uint256"
        },
        {
          "indexed": false,
          "internalType": "uint256",
          "name": "amount",
          "type": "uint256"
        }
      ],
      "name": "Deposit",
      "type": "event"
    },
    {
      "anonymous": false,
      "inputs": [
        {
          "indexed": true,
          "internalType": "address",
          "name": "user",
          "type": "address"
        },
        {
          "indexed": true,
          "internalType": "uint256",
          "name": "pid",
          "type": "uint256"
        },
        {
          "indexed": false,
          "internalType": "uint256",
          "name": "amount",
          "type": "uint256"
        }
      ],
      "name": "EmergencyWithdraw",
      "type": "event"
    },
    {
      "anonymous": false,
      "inputs": [
        {
          "indexed": true,
          "internalType": "address",
          "name": "previousOwner",
          "type": "address"
        },
        {
          "indexed": true,
          "internalType": "address",
          "name": "newOwner",
          "type": "address"
        }
      ],
      "name": "OwnershipTransferred",
      "type": "event"
    },
    {
      "anonymous": false,
      "inputs": [
        {
          "indexed": true,
          "internalType": "address",
          "name": "user",
          "type": "address"
        },
        {
          "indexed": false,
          "internalType": "address",
          "name": "vesting",
          "type": "address"
        }
      ],
      "name": "SetVestingMaster",
      "type": "event"
    },
    {
      "anonymous": false,
      "inputs": [
        {
          "indexed": true,
          "internalType": "address",
          "name": "user",
          "type": "address"
        },
        {
          "indexed": false,
          "internalType": "uint256",
          "name": "amount",
          "type": "uint256"
        }
      ],
      "name": "UpdateUPPerBlock",
      "type": "event"
    },
    {
      "anonymous": false,
      "inputs": [
        {
          "indexed": true,
          "internalType": "address",
          "name": "user",
          "type": "address"
        },
        {
          "indexed": true,
          "internalType": "uint256",
          "name": "pid",
          "type": "uint256"
        },
        {
          "indexed": false,
          "internalType": "uint256",
          "name": "amount",
          "type": "uint256"
        }
      ],
      "name": "Withdraw",
      "type": "event"
    },
    {
      "inputs": [],
      "name": "UP",
      "outputs": [
        {
          "internalType": "address",
          "name": "",
          "type": "address"
        }
      ],
      "stateMutability": "view",
      "type": "function"
    },
    {
      "inputs": [],
      "name": "UPPerBlock",
      "outputs": [
        {
          "internalType": "uint256",
          "name": "",
          "type": "uint256"
        }
      ],
      "stateMutability": "view",
      "type": "function"
    },
    {
      "inputs": [
        {
          "internalType": "uint256",
          "name": "_allocPoint",
          "type": "uint256"
        },
        {
          "internalType": "contract IERC20",
          "name": "_want",
          "type": "address"
        },
        {
          "internalType": "bool",
          "name": "_withUpdate",
          "type": "bool"
        },
        {
          "internalType": "address",
          "name": "_strat",
          "type": "address"
        }
      ],
      "name": "add",
      "outputs": [],
      "stateMutability": "nonpayable",
      "type": "function"
    },
    {
      "inputs": [
        {
          "internalType": "uint256",
          "name": "_pid",
          "type": "uint256"
        },
        {
          "internalType": "uint256",
          "name": "_wantAmt",
          "type": "uint256"
        }
      ],
      "name": "deposit",
      "outputs": [],
      "stateMutability": "nonpayable",
      "type": "function"
    },
    {
      "inputs": [
        {
          "internalType": "uint256",
          "name": "_pid",
          "type": "uint256"
        }
      ],
      "name": "emergencyWithdraw",
      "outputs": [],
      "stateMutability": "nonpayable",
      "type": "function"
    },
    {
      "inputs": [
        {
          "internalType": "uint256",
          "name": "_from",
          "type": "uint256"
        },
        {
          "internalType": "uint256",
          "name": "_to",
          "type": "uint256"
        }
      ],
      "name": "getMultiplier",
      "outputs": [
        {
          "internalType": "uint256",
          "name": "",
          "type": "uint256"
        }
      ],
      "stateMutability": "pure",
      "type": "function"
    },
    {
      "inputs": [
        {
          "internalType": "address",
          "name": "_token",
          "type": "address"
        },
        {
          "internalType": "uint256",
          "name": "_amount",
          "type": "uint256"
        }
      ],
      "name": "inCaseTokensGetStuck",
      "outputs": [],
      "stateMutability": "nonpayable",
      "type": "function"
    },
    {
      "inputs": [],
      "name": "massUpdatePools",
      "outputs": [],
      "stateMutability": "nonpayable",
      "type": "function"
    },
    {
      "inputs": [],
      "name": "owner",
      "outputs": [
        {
          "internalType": "address",
          "name": "",
          "type": "address"
        }
      ],
      "stateMutability": "view",
      "type": "function"
    },
    {
      "inputs": [
        {
          "internalType": "uint256",
          "name": "_pid",
          "type": "uint256"
        },
        {
          "internalType": "address",
          "name": "_user",
          "type": "address"
        }
      ],
      "name": "pendingUP",
      "outputs": [
        {
          "internalType": "uint256",
          "name": "",
          "type": "uint256"
        }
      ],
      "stateMutability": "view",
      "type": "function"
    },
    {
      "inputs": [
        {
          "internalType": "uint256",
          "name": "",
          "type": "uint256"
        }
      ],
      "name": "poolInfo",
      "outputs": [
        {
          "internalType": "contract IERC20",
          "name": "want",
          "type": "address"
        },
        {
          "internalType": "uint256",
          "name": "allocPoint",
          "type": "uint256"
        },
        {
          "internalType": "uint256",
          "name": "lastRewardBlock",
          "type": "uint256"
        },
        {
          "internalType": "uint256",
          "name": "accUPPerShare",
          "type": "uint256"
        },
        {
          "internalType": "address",
          "name": "strat",
          "type": "address"
        }
      ],
      "stateMutability": "view",
      "type": "function"
    },
    {
      "inputs": [],
      "name": "poolLength",
      "outputs": [
        {
          "internalType": "uint256",
          "name": "",
          "type": "uint256"
        }
      ],
      "stateMutability": "view",
      "type": "function"
    },
    {
      "inputs": [],
      "name": "renounceOwnership",
      "outputs": [],
      "stateMutability": "nonpayable",
      "type": "function"
    },
    {
      "inputs": [
        {
          "internalType": "uint256",
          "name": "_pid",
          "type": "uint256"
        },
        {
          "internalType": "uint256",
          "name": "_allocPoint",
          "type": "uint256"
        },
        {
          "internalType": "bool",
          "name": "_withUpdate",
          "type": "bool"
        }
      ],
      "name": "set",
      "outputs": [],
      "stateMutability": "nonpayable",
      "type": "function"
    },
    {
      "inputs": [
        {
          "internalType": "address",
          "name": "_master",
          "type": "address"
        }
      ],
      "name": "setVestingMaster",
      "outputs": [],
      "stateMutability": "nonpayable",
      "type": "function"
    },
    {
      "inputs": [
        {
          "internalType": "uint256",
          "name": "_pid",
          "type": "uint256"
        },
        {
          "internalType": "address",
          "name": "_user",
          "type": "address"
        }
      ],
      "name": "stakedWantTokens",
      "outputs": [
        {
          "internalType": "uint256",
          "name": "",
          "type": "uint256"
        }
      ],
      "stateMutability": "view",
      "type": "function"
    },
    {
      "inputs": [],
      "name": "startBlock",
      "outputs": [
        {
          "internalType": "uint256",
          "name": "",
          "type": "uint256"
        }
      ],
      "stateMutability": "view",
      "type": "function"
    },
    {
      "inputs": [],
      "name": "totalAllocPoint",
      "outputs": [
        {
          "internalType": "uint256",
          "name": "",
          "type": "uint256"
        }
      ],
      "stateMutability": "view",
      "type": "function"
    },
    {
      "inputs": [
        {
          "internalType": "address",
          "name": "newOwner",
          "type": "address"
        }
      ],
      "name": "transferOwnership",
      "outputs": [],
      "stateMutability": "nonpayable",
      "type": "function"
    },
    {
      "inputs": [
        {
          "internalType": "uint256",
          "name": "_pid",
          "type": "uint256"
        }
      ],
      "name": "updatePool",
      "outputs": [],
      "stateMutability": "nonpayable",
      "type": "function"
    },
    {
      "inputs": [
        {
          "internalType": "uint256",
          "name": "_upPerBlock",
          "type": "uint256"
        }
      ],
      "name": "updateUPPerBlock",
      "outputs": [],
      "stateMutability": "nonpayable",
      "type": "function"
    },
    {
      "inputs": [
        {
          "internalType": "uint256",
          "name": "",
          "type": "uint256"
        },
        {
          "internalType": "address",
          "name": "",
          "type": "address"
        }
      ],
      "name": "userInfo",
      "outputs": [
        {
          "internalType": "uint256",
          "name": "shares",
          "type": "uint256"
        },
        {
          "internalType": "uint256",
          "name": "rewardDebt",
          "type": "uint256"
        }
      ],
      "stateMutability": "view",
      "type": "function"
    },
    {
      "inputs": [],
      "name": "vestingMaster",
      "outputs": [
        {
          "internalType": "address",
          "name": "",
          "type": "address"
        }
      ],
      "stateMutability": "view",
      "type": "function"
    },
    {
      "inputs": [
        {
          "internalType": "uint256",
          "name": "_pid",
          "type": "uint256"
        },
        {
          "internalType": "uint256",
          "name": "_wantAmt",
          "type": "uint256"
        }
      ],
      "name": "withdraw",
      "outputs": [],
      "stateMutability": "nonpayable",
      "type": "function"
    },
    {
      "inputs": [
        {
          "internalType": "uint256",
          "name": "_pid",
          "type": "uint256"
        }
      ],
      "name": "withdrawAll",
      "outputs": [],
      "stateMutability": "nonpayable",
      "type": "function"
    }
  ],
  "bytecode": "0x6080604052600060085534801561001557600080fd5b506040516200282f3803806200282f8339818101604052608081101561003a57600080fd5b5080516020820151604083015160609093015191929091600061005b6100e7565b600080546001600160a01b0319166001600160a01b0383169081178255604051929350917f8be0079c531659141344cd1fd0a4f28419497f9722a3daafe3b4186f6b6457e0908290a35060018055600280546001600160a01b039586166001600160a01b03199182161790915560038054949095169316929092179092556004919091556005556100eb565b3390565b61273480620000fb6000396000f3fe608060405234801561001057600080fd5b50600436106101a35760003560e01c8063630b5ba1116100ee57806393f1a40b11610097578063c6d758cb11610071578063c6d758cb1461045f578063db4e58c81461048b578063e2bbb15814610493578063f2fde38b146104b6576101a3565b806393f1a40b146103d7578063958e2d311461041c578063c2ca280314610439576101a3565b80637b84daec116100c85780637b84daec146103805780638da5cb5b146103ac5780638dbb1e3a146103b4576101a3565b8063630b5ba11461034557806364482f791461034d578063715018a614610378576101a3565b8063441a3e70116101505780635312ea8e1161012a5780635312ea8e146102cd5780635533a71e146102ea5780635f70edcf14610307576101a3565b8063441a3e701461028357806348cd4cb1146102a857806351eb05a6146102b0576101a3565b806317caf6f11161018157806317caf6f11461024f5780631eccdf071461025757806324f4ec511461027b576101a3565b8063081e3eda146101a8578063144c3c43146101c25780631526fe27146101ee575b600080fd5b6101b06104dc565b60408051918252519081900360200190f35b6101b0600480360360408110156101d857600080fd5b50803590602001356001600160a01b03166104e2565b61020b6004803603602081101561020457600080fd5b503561066c565b60405180866001600160a01b03168152602001858152602001848152602001838152602001826001600160a01b031681526020019550505050505060405180910390f35b6101b06106b7565b61025f6106bd565b604080516001600160a01b039092168252519081900360200190f35b61025f6106cc565b6102a66004803603604081101561029957600080fd5b50803590602001356106db565b005b6101b0610da9565b6102a6600480360360208110156102c657600080fd5b5035610daf565b6102a6600480360360208110156102e357600080fd5b5035610eee565b6102a66004803603602081101561030057600080fd5b5035611263565b6102a66004803603608081101561031d57600080fd5b508035906001600160a01b036020820135811691604081013515159160609091013516611315565b6102a6611501565b6102a66004803603606081101561036357600080fd5b5080359060208101359060400135151561151f565b6102a661160c565b6101b06004803603604081101561039657600080fd5b50803590602001356001600160a01b03166116e2565b61025f61186b565b6101b0600480360360408110156103ca57600080fd5b508035906020013561187a565b610403600480360360408110156103ed57600080fd5b50803590602001356001600160a01b031661188d565b6040805192835260208301919091528051918290030190f35b6102a66004803603602081101561043257600080fd5b50356118b1565b6102a66004803603602081101561044f57600080fd5b50356001600160a01b03166118db565b6102a66004803603604081101561047557600080fd5b506001600160a01b0381351690602001356119be565b6101b0611aad565b6102a6600480360360408110156104a957600080fd5b5080359060200135611ab3565b6102a6600480360360208110156104cc57600080fd5b50356001600160a01b0316611e1c565b60065490565b600080600684815481106104f257fe5b600091825260208083208784526007825260408085206001600160a01b038981168752908452818620600595909502909201600381015460048083015484517f44a3955e000000000000000000000000000000000000000000000000000000008152945193995096979196919591909416936344a3955e93808201939190829003018186803b15801561058457600080fd5b505afa158015610598573d6000803e3d6000fd5b505050506040513d60208110156105ae57600080fd5b50516002850154909150431180156105c557508015155b156106315760006105da85600201544361187a565b9050600061060d600854610607886001015461060160045487611f4890919063ffffffff16565b90611f48565b90611fa1565b905061062c610625846106078464e8d4a51000611f48565b8590612008565b935050505b61065f836001015461065964e8d4a51000610607868860000154611f4890919063ffffffff16565b90612062565b9450505050505b92915050565b6006818154811061067957fe5b6000918252602090912060059091020180546001820154600283015460038401546004909401546001600160a01b0393841695509193909290911685565b60085481565b6003546001600160a01b031681565b6002546001600160a01b031681565b60026001541415610733576040805162461bcd60e51b815260206004820152601f60248201527f5265656e7472616e637947756172643a207265656e7472616e742063616c6c00604482015290519081900360640190fd5b600260015561074182610daf565b60006006838154811061075057fe5b60009182526020808320868452600782526040808520338652909252908320600680546005909402909201945092918690811061078957fe5b906000526020600020906005020160040160009054906101000a90046001600160a01b03166001600160a01b03166342da4eb36040518163ffffffff1660e01b815260040160206040518083038186803b1580156107e657600080fd5b505afa1580156107fa573d6000803e3d6000fd5b505050506040513d602081101561081057600080fd5b5051600680549192506000918790811061082657fe5b906000526020600020906005020160040160009054906101000a90046001600160a01b03166001600160a01b03166344a3955e6040518163ffffffff1660e01b815260040160206040518083038186803b15801561088357600080fd5b505afa158015610897573d6000803e3d6000fd5b505050506040513d60208110156108ad57600080fd5b50518354909150610905576040805162461bcd60e51b815260206004820152601060248201527f757365722e736861726573206973203000000000000000000000000000000000604482015290519081900360640190fd5b6000811161095a576040805162461bcd60e51b815260206004820152601060248201527f736861726573546f74616c206973203000000000000000000000000000000000604482015290519081900360640190fd5b6000610988846001015461065964e8d4a5100061060789600301548960000154611f4890919063ffffffff16565b90508015610b92576003546000906001600160a01b031615610ad457600354604080517f05e97bc60000000000000000000000000000000000000000000000000000000081529051610ad1926001600160a01b0316916305e97bc6916004808301926020929190829003018186803b158015610a0357600080fd5b505afa158015610a17573d6000803e3d6000fd5b505050506040513d6020811015610a2d57600080fd5b5051600354604080517f05e97bc6000000000000000000000000000000000000000000000000000000008152905161060192610aca926001926001600160a01b03909216916305e97bc691600480820192602092909190829003018186803b158015610a9857600080fd5b505afa158015610aac573d6000803e3d6000fd5b505050506040513d6020811015610ac257600080fd5b505190612008565b8590611fa1565b90505b610ae733610ae28484612062565b6120bf565b508015610b9057600354600090610b07906001600160a01b0316836120bf565b600354604080517f282d3fdf0000000000000000000000000000000000000000000000000000000081523360048201526024810184905290519293506001600160a01b039091169163282d3fdf9160448082019260009290919082900301818387803b158015610b7657600080fd5b505af1158015610b8a573d6000803e3d6000fd5b50505050505b505b8354600090610ba79084906106079087611f48565b905080871115610bb5578096505b8615610d4457600060068981548110610bca57fe5b600091825260208083206004600590930201820154604080517f2e1a7d4d0000000000000000000000000000000000000000000000000000000081529384018d9052516001600160a01b0390911693632e1a7d4d936024808201949392918390030190829087803b158015610c3e57600080fd5b505af1158015610c52573d6000803e3d6000fd5b505050506040513d6020811015610c6857600080fd5b50518654909150811115610c7f5760008655610c8e565b8554610c8b9082612062565b86555b8654604080517f70a0823100000000000000000000000000000000000000000000000000000000815230600482015290516000926001600160a01b0316916370a08231916024808301926020929190829003018186803b158015610cf157600080fd5b505afa158015610d05573d6000803e3d6000fd5b505050506040513d6020811015610d1b57600080fd5b5051905088811015610d2b578098505b8754610d41906001600160a01b0316338b612181565b50505b60038601548554610d5f9164e8d4a510009161060791611f48565b6001860155604080518881529051899133917ff279e6a1f5e320cca91135676d9cb6e44ca8a08c0b88342bcdb1144f6511b5689181900360200190a3505060018055505050505050565b60055481565b600060068281548110610dbe57fe5b9060005260206000209060050201905080600201544311610ddf5750610eeb565b60008160040160009054906101000a90046001600160a01b03166001600160a01b03166344a3955e6040518163ffffffff1660e01b815260040160206040518083038186803b158015610e3157600080fd5b505afa158015610e45573d6000803e3d6000fd5b505050506040513d6020811015610e5b57600080fd5b5051905080610e71575043600290910155610eeb565b6000610e8183600201544361187a565b905080610e9057505050610eeb565b6000610eb5600854610607866001015461060160045487611f4890919063ffffffff16565b9050610ed8610ecd846106078464e8d4a51000611f48565b600386015490612008565b6003850155505043600290920191909155505b50565b60026001541415610f46576040805162461bcd60e51b815260206004820152601f60248201527f5265656e7472616e637947756172643a207265656e7472616e742063616c6c00604482015290519081900360640190fd5b6002600181905550600060068281548110610f5d57fe5b60009182526020808320858452600782526040808520338652835280852060059490940290910160048181015483517f42da4eb300000000000000000000000000000000000000000000000000000000815293519297509495946001600160a01b0316936342da4eb39380830193919290829003018186803b158015610fe257600080fd5b505afa158015610ff6573d6000803e3d6000fd5b505050506040513d602081101561100c57600080fd5b5051600480850154604080517f44a3955e00000000000000000000000000000000000000000000000000000000815290519394506000936001600160a01b03909216926344a3955e928282019260209290829003018186803b15801561107157600080fd5b505afa158015611085573d6000803e3d6000fd5b505050506040513d602081101561109b57600080fd5b505183549091506000906110b59083906106079086611f48565b9050600686815481106110c457fe5b600091825260208083206004600590930201820154604080517f2e1a7d4d000000000000000000000000000000000000000000000000000000008152938401869052516001600160a01b0390911693632e1a7d4d936024808201949392918390030190829087803b15801561113857600080fd5b505af115801561114c573d6000803e3d6000fd5b505050506040513d602081101561116257600080fd5b50508454604080517f70a0823100000000000000000000000000000000000000000000000000000000815230600482015290516000926001600160a01b0316916370a08231916024808301926020929190829003018186803b1580156111c757600080fd5b505afa1580156111db573d6000803e3d6000fd5b505050506040513d60208110156111f157600080fd5b5051905081811015611201578091505b8554611217906001600160a01b03163384612181565b604080518381529051889133917fbb757047c2b5f3974fe26b7c10f732e7bce710b0952a71082702781e62ae05959181900360200190a350506000808455600193840155505080555050565b61126b612206565b6001600160a01b031661127c61186b565b6001600160a01b0316146112d7576040805162461bcd60e51b815260206004820181905260248201527f4f776e61626c653a2063616c6c6572206973206e6f7420746865206f776e6572604482015290519081900360640190fd5b600481905560408051828152905133917f5b5269da94ba59af824078b0e62ed3b7f7b8758a2760e3a6a1df77faad5666fd919081900360200190a250565b61131d612206565b6001600160a01b031661132e61186b565b6001600160a01b031614611389576040805162461bcd60e51b815260206004820181905260248201527f4f776e61626c653a2063616c6c6572206973206e6f7420746865206f776e6572604482015290519081900360640190fd5b811561139757611397611501565b600060055443116113aa576005546113ac565b435b6008549091506113bc9086612008565b6008556040805160a0810182526001600160a01b0395861681526020810196875290810191825260006060820181815293861660808301908152600680546001810182559252915160059091027ff652222313e28459528d920b65115c16c04f3efc82aaedc97be59f3f377c0d3f810180549288167fffffffffffffffffffffffff000000000000000000000000000000000000000093841617905596517ff652222313e28459528d920b65115c16c04f3efc82aaedc97be59f3f377c0d4088015591517ff652222313e28459528d920b65115c16c04f3efc82aaedc97be59f3f377c0d4187015591517ff652222313e28459528d920b65115c16c04f3efc82aaedc97be59f3f377c0d4286015590517ff652222313e28459528d920b65115c16c04f3efc82aaedc97be59f3f377c0d43909401805494909316931692909217905550565b60005b600654811015610eeb5761151781610daf565b600101611504565b611527612206565b6001600160a01b031661153861186b565b6001600160a01b031614611593576040805162461bcd60e51b815260206004820181905260248201527f4f776e61626c653a2063616c6c6572206973206e6f7420746865206f776e6572604482015290519081900360640190fd5b80156115a1576115a1611501565b6115de826115d8600686815481106115b557fe5b90600052602060002090600502016001015460085461206290919063ffffffff16565b90612008565b60088190555081600684815481106115f257fe5b906000526020600020906005020160010181905550505050565b611614612206565b6001600160a01b031661162561186b565b6001600160a01b031614611680576040805162461bcd60e51b815260206004820181905260248201527f4f776e61626c653a2063616c6c6572206973206e6f7420746865206f776e6572604482015290519081900360640190fd5b600080546040516001600160a01b03909116907f8be0079c531659141344cd1fd0a4f28419497f9722a3daafe3b4186f6b6457e0908390a3600080547fffffffffffffffffffffffff0000000000000000000000000000000000000000169055565b600080600684815481106116f257fe5b600091825260208083208784526007825260408085206001600160a01b03808a168752908452818620600460059096029093018581015483517f44a3955e000000000000000000000000000000000000000000000000000000008152935191985093969593909116936344a3955e9383810193919291829003018186803b15801561177c57600080fd5b505afa158015611790573d6000803e3d6000fd5b505050506040513d60208110156117a657600080fd5b505160068054919250600091889081106117bc57fe5b906000526020600020906005020160040160009054906101000a90046001600160a01b03166001600160a01b03166342da4eb36040518163ffffffff1660e01b815260040160206040518083038186803b15801561181957600080fd5b505afa15801561182d573d6000803e3d6000fd5b505050506040513d602081101561184357600080fd5b5051905081611859576000945050505050610666565b825461065f9083906106079084611f48565b6000546001600160a01b031690565b60006118868284612062565b9392505050565b60076020908152600092835260408084209091529082529020805460019091015482565b610eeb817fffffffffffffffffffffffffffffffffffffffffffffffffffffffffffffffff6106db565b6118e3612206565b6001600160a01b03166118f461186b565b6001600160a01b03161461194f576040805162461bcd60e51b815260206004820181905260248201527f4f776e61626c653a2063616c6c6572206973206e6f7420746865206f776e6572604482015290519081900360640190fd5b600380546001600160a01b0383167fffffffffffffffffffffffff00000000000000000000000000000000000000009091168117909155604080519182525133917f919b567067561e1cf00aa740f537687f1818f5089d37c8c6af13bb76caa7b9fb919081900360200190a250565b6119c6612206565b6001600160a01b03166119d761186b565b6001600160a01b031614611a32576040805162461bcd60e51b815260206004820181905260248201527f4f776e61626c653a2063616c6c6572206973206e6f7420746865206f776e6572604482015290519081900360640190fd5b6002546001600160a01b0383811691161415611a95576040805162461bcd60e51b815260206004820152600560248201527f2173616665000000000000000000000000000000000000000000000000000000604482015290519081900360640190fd5b611aa96001600160a01b0383163383612181565b5050565b60045481565b60026001541415611b0b576040805162461bcd60e51b815260206004820152601f60248201527f5265656e7472616e637947756172643a207265656e7472616e742063616c6c00604482015290519081900360640190fd5b6002600155611b1982610daf565b600060068381548110611b2857fe5b60009182526020808320868452600782526040808520338652909252922080546005909202909201925015611cbe576000611b85826001015461065964e8d4a5100061060787600301548760000154611f4890919063ffffffff16565b90508015611cbc576003546000906001600160a01b031615611c0357600354604080517f05e97bc60000000000000000000000000000000000000000000000000000000081529051611c00926001600160a01b0316916305e97bc6916004808301926020929190829003018186803b158015610a0357600080fd5b90505b611c1133610ae28484612062565b508015611cba57600354600090611c31906001600160a01b0316836120bf565b600354604080517f282d3fdf0000000000000000000000000000000000000000000000000000000081523360048201526024810184905290519293506001600160a01b039091169163282d3fdf9160448082019260009290919082900301818387803b158015611ca057600080fd5b505af1158015611cb4573d6000803e3d6000fd5b50505050505b505b505b8215611dbb578154611cdb906001600160a01b031633308661220a565b60048201548254611cf9916001600160a01b03918216911685612298565b600060068581548110611d0857fe5b600091825260208083206004600590930201820154604080517fb6b55f25000000000000000000000000000000000000000000000000000000008152938401899052516001600160a01b039091169363b6b55f25936024808201949392918390030190829087803b158015611d7c57600080fd5b505af1158015611d90573d6000803e3d6000fd5b505050506040513d6020811015611da657600080fd5b50518254909150611db79082612008565b8255505b60038201548154611dd69164e8d4a510009161060791611f48565b6001820155604080518481529051859133917f90890809c654f11d6e72a28fa60149770a0d11ec6c92319d6ceb2bb0a4ea1a159181900360200190a35050600180555050565b611e24612206565b6001600160a01b0316611e3561186b565b6001600160a01b031614611e90576040805162461bcd60e51b815260206004820181905260248201527f4f776e61626c653a2063616c6c6572206973206e6f7420746865206f776e6572604482015290519081900360640190fd5b6001600160a01b038116611ed55760405162461bcd60e51b81526004018080602001828103825260268152602001806126686026913960400191505060405180910390fd5b600080546040516001600160a01b03808516939216917f8be0079c531659141344cd1fd0a4f28419497f9722a3daafe3b4186f6b6457e091a3600080547fffffffffffffffffffffffff0000000000000000000000000000000000000000166001600160a01b0392909216919091179055565b600082611f5757506000610666565b82820282848281611f6457fe5b04146118865760405162461bcd60e51b81526004018080602001828103825260218152602001806126b46021913960400191505060405180910390fd5b6000808211611ff7576040805162461bcd60e51b815260206004820152601a60248201527f536166654d6174683a206469766973696f6e206279207a65726f000000000000604482015290519081900360640190fd5b81838161200057fe5b049392505050565b600082820183811015611886576040805162461bcd60e51b815260206004820152601b60248201527f536166654d6174683a206164646974696f6e206f766572666c6f770000000000604482015290519081900360640190fd5b6000828211156120b9576040805162461bcd60e51b815260206004820152601e60248201527f536166654d6174683a207375627472616374696f6e206f766572666c6f770000604482015290519081900360640190fd5b50900390565b600254604080517f70a08231000000000000000000000000000000000000000000000000000000008152306004820152905160009283926001600160a01b03909116916370a0823191602480820192602092909190829003018186803b15801561212857600080fd5b505afa15801561213c573d6000803e3d6000fd5b505050506040513d602081101561215257600080fd5b5051905080831115612162578092505b600254612179906001600160a01b03168585612181565b509092915050565b604080516001600160a01b038416602482015260448082018490528251808303909101815260649091019091526020810180517bffffffffffffffffffffffffffffffffffffffffffffffffffffffff167fa9059cbb0000000000000000000000000000000000000000000000000000000017905261220190849061237b565b505050565b3390565b604080516001600160a01b0380861660248301528416604482015260648082018490528251808303909101815260849091019091526020810180517bffffffffffffffffffffffffffffffffffffffffffffffffffffffff167f23b872dd0000000000000000000000000000000000000000000000000000000017905261229290859061237b565b50505050565b60006122fc82856001600160a01b031663dd62ed3e30876040518363ffffffff1660e01b815260040180836001600160a01b03168152602001826001600160a01b031681526020019250505060206040518083038186803b158015610a9857600080fd5b604080516001600160a01b038616602482015260448082018490528251808303909101815260649091019091526020810180517bffffffffffffffffffffffffffffffffffffffffffffffffffffffff167f095ea7b3000000000000000000000000000000000000000000000000000000001790529091506122929085905b60606123d0826040518060400160405280602081526020017f5361666545524332303a206c6f772d6c6576656c2063616c6c206661696c6564815250856001600160a01b031661242c9092919063ffffffff16565b805190915015612201578080602001905160208110156123ef57600080fd5b50516122015760405162461bcd60e51b815260040180806020018281038252602a8152602001806126d5602a913960400191505060405180910390fd5b606061243b8484600085612443565b949350505050565b6060824710156124845760405162461bcd60e51b815260040180806020018281038252602681526020018061268e6026913960400191505060405180910390fd5b61248d856125bd565b6124de576040805162461bcd60e51b815260206004820152601d60248201527f416464726573733a2063616c6c20746f206e6f6e2d636f6e7472616374000000604482015290519081900360640190fd5b60006060866001600160a01b031685876040518082805190602001908083835b6020831061253b57805182527fffffffffffffffffffffffffffffffffffffffffffffffffffffffffffffffe090920191602091820191016124fe565b6001836020036101000a03801982511681845116808217855250505050505090500191505060006040518083038185875af1925050503d806000811461259d576040519150601f19603f3d011682016040523d82523d6000602084013e6125a2565b606091505b50915091506125b28282866125c3565b979650505050505050565b3b151590565b606083156125d2575081611886565b8251156125e25782518084602001fd5b8160405162461bcd60e51b81526004018080602001828103825283818151815260200191508051906020019080838360005b8381101561262c578181015183820152602001612614565b50505050905090810190601f1680156126595780820380516001836020036101000a031916815260200191505b509250505060405180910390fdfe4f776e61626c653a206e6577206f776e657220697320746865207a65726f2061646472657373416464726573733a20696e73756666696369656e742062616c616e636520666f722063616c6c536166654d6174683a206d756c7469706c69636174696f6e206f766572666c6f775361666545524332303a204552433230206f7065726174696f6e20646964206e6f742073756363656564a2646970667358221220482d2d76bf5b0fc0454dea1a815882e2489dc01bb9aae78d2406cc19d1c04f7a64736f6c634300060c0033",
  "linkReferences": {},
  "deployedLinkReferences": {}
}